{
  "contractName": "MyGovernor",
  "abi": [
    {
      "inputs": [
        {
          "internalType": "contract ERC20Votes",
          "name": "_token",
          "type": "address"
        },
        {
          "internalType": "contract TimelockController",
          "name": "_timelock",
          "type": "address"
        }
      ],
      "stateMutability": "nonpayable",
      "type": "constructor"
    },
    {
      "anonymous": false,
      "inputs": [
        {
          "indexed": false,
          "internalType": "uint256",
          "name": "proposalId",
          "type": "uint256"
        }
      ],
      "name": "ProposalCanceled",
      "type": "event"
    },
    {
      "anonymous": false,
      "inputs": [
        {
          "indexed": false,
          "internalType": "uint256",
          "name": "proposalId",
          "type": "uint256"
        },
        {
          "indexed": false,
          "internalType": "address",
          "name": "proposer",
          "type": "address"
        },
        {
          "indexed": false,
          "internalType": "address[]",
          "name": "targets",
          "type": "address[]"
        },
        {
          "indexed": false,
          "internalType": "uint256[]",
          "name": "values",
          "type": "uint256[]"
        },
        {
          "indexed": false,
          "internalType": "string[]",
          "name": "signatures",
          "type": "string[]"
        },
        {
          "indexed": false,
          "internalType": "bytes[]",
          "name": "calldatas",
          "type": "bytes[]"
        },
        {
          "indexed": false,
          "internalType": "uint256",
          "name": "startBlock",
          "type": "uint256"
        },
        {
          "indexed": false,
          "internalType": "uint256",
          "name": "endBlock",
          "type": "uint256"
        },
        {
          "indexed": false,
          "internalType": "string",
          "name": "description",
          "type": "string"
        }
      ],
      "name": "ProposalCreated",
      "type": "event"
    },
    {
      "anonymous": false,
      "inputs": [
        {
          "indexed": false,
          "internalType": "uint256",
          "name": "proposalId",
          "type": "uint256"
        }
      ],
      "name": "ProposalExecuted",
      "type": "event"
    },
    {
      "anonymous": false,
      "inputs": [
        {
          "indexed": false,
          "internalType": "uint256",
          "name": "proposalId",
          "type": "uint256"
        },
        {
          "indexed": false,
          "internalType": "uint256",
          "name": "eta",
          "type": "uint256"
        }
      ],
      "name": "ProposalQueued",
      "type": "event"
    },
    {
      "anonymous": false,
      "inputs": [
        {
          "indexed": false,
          "internalType": "uint256",
          "name": "oldQuorumNumerator",
          "type": "uint256"
        },
        {
          "indexed": false,
          "internalType": "uint256",
          "name": "newQuorumNumerator",
          "type": "uint256"
        }
      ],
      "name": "QuorumNumeratorUpdated",
      "type": "event"
    },
    {
      "anonymous": false,
      "inputs": [
        {
          "indexed": false,
          "internalType": "address",
          "name": "oldTimelock",
          "type": "address"
        },
        {
          "indexed": false,
          "internalType": "address",
          "name": "newTimelock",
          "type": "address"
        }
      ],
      "name": "TimelockChange",
      "type": "event"
    },
    {
      "anonymous": false,
      "inputs": [
        {
          "indexed": true,
          "internalType": "address",
          "name": "voter",
          "type": "address"
        },
        {
          "indexed": false,
          "internalType": "uint256",
          "name": "proposalId",
          "type": "uint256"
        },
        {
          "indexed": false,
          "internalType": "uint8",
          "name": "support",
          "type": "uint8"
        },
        {
          "indexed": false,
          "internalType": "uint256",
          "name": "weight",
          "type": "uint256"
        },
        {
          "indexed": false,
          "internalType": "string",
          "name": "reason",
          "type": "string"
        }
      ],
      "name": "VoteCast",
      "type": "event"
    },
    {
      "inputs": [],
      "name": "BALLOT_TYPEHASH",
      "outputs": [
        {
          "internalType": "bytes32",
          "name": "",
          "type": "bytes32"
        }
      ],
      "stateMutability": "view",
      "type": "function",
      "constant": true
    },
    {
      "inputs": [],
      "name": "COUNTING_MODE",
      "outputs": [
        {
          "internalType": "string",
          "name": "",
          "type": "string"
        }
      ],
      "stateMutability": "pure",
      "type": "function",
      "constant": true
    },
    {
      "inputs": [
        {
          "internalType": "uint256",
          "name": "proposalId",
          "type": "uint256"
        }
      ],
      "name": "cancel",
      "outputs": [],
      "stateMutability": "nonpayable",
      "type": "function"
    },
    {
      "inputs": [
        {
          "internalType": "uint256",
          "name": "proposalId",
          "type": "uint256"
        },
        {
          "internalType": "uint8",
          "name": "support",
          "type": "uint8"
        }
      ],
      "name": "castVote",
      "outputs": [
        {
          "internalType": "uint256",
          "name": "",
          "type": "uint256"
        }
      ],
      "stateMutability": "nonpayable",
      "type": "function"
    },
    {
      "inputs": [
        {
          "internalType": "uint256",
          "name": "proposalId",
          "type": "uint256"
        },
        {
          "internalType": "uint8",
          "name": "support",
          "type": "uint8"
        },
        {
          "internalType": "uint8",
          "name": "v",
          "type": "uint8"
        },
        {
          "internalType": "bytes32",
          "name": "r",
          "type": "bytes32"
        },
        {
          "internalType": "bytes32",
          "name": "s",
          "type": "bytes32"
        }
      ],
      "name": "castVoteBySig",
      "outputs": [
        {
          "internalType": "uint256",
          "name": "",
          "type": "uint256"
        }
      ],
      "stateMutability": "nonpayable",
      "type": "function"
    },
    {
      "inputs": [
        {
          "internalType": "uint256",
          "name": "proposalId",
          "type": "uint256"
        },
        {
          "internalType": "uint8",
          "name": "support",
          "type": "uint8"
        },
        {
          "internalType": "string",
          "name": "reason",
          "type": "string"
        }
      ],
      "name": "castVoteWithReason",
      "outputs": [
        {
          "internalType": "uint256",
          "name": "",
          "type": "uint256"
        }
      ],
      "stateMutability": "nonpayable",
      "type": "function"
    },
    {
      "inputs": [
        {
          "internalType": "address[]",
          "name": "targets",
          "type": "address[]"
        },
        {
          "internalType": "uint256[]",
          "name": "values",
          "type": "uint256[]"
        },
        {
          "internalType": "bytes[]",
          "name": "calldatas",
          "type": "bytes[]"
        },
        {
          "internalType": "bytes32",
          "name": "descriptionHash",
          "type": "bytes32"
        }
      ],
      "name": "execute",
      "outputs": [
        {
          "internalType": "uint256",
          "name": "",
          "type": "uint256"
        }
      ],
      "stateMutability": "payable",
      "type": "function",
      "payable": true
    },
    {
      "inputs": [
        {
          "internalType": "uint256",
          "name": "proposalId",
          "type": "uint256"
        }
      ],
      "name": "execute",
      "outputs": [],
      "stateMutability": "payable",
      "type": "function",
      "payable": true
    },
    {
      "inputs": [
        {
          "internalType": "uint256",
          "name": "proposalId",
          "type": "uint256"
        }
      ],
      "name": "getActions",
      "outputs": [
        {
          "internalType": "address[]",
          "name": "targets",
          "type": "address[]"
        },
        {
          "internalType": "uint256[]",
          "name": "values",
          "type": "uint256[]"
        },
        {
          "internalType": "string[]",
          "name": "signatures",
          "type": "string[]"
        },
        {
          "internalType": "bytes[]",
          "name": "calldatas",
          "type": "bytes[]"
        }
      ],
      "stateMutability": "view",
      "type": "function",
      "constant": true
    },
    {
      "inputs": [
        {
          "internalType": "uint256",
          "name": "proposalId",
          "type": "uint256"
        },
        {
          "internalType": "address",
          "name": "voter",
          "type": "address"
        }
      ],
      "name": "getReceipt",
      "outputs": [
        {
          "components": [
            {
              "internalType": "bool",
              "name": "hasVoted",
              "type": "bool"
            },
            {
              "internalType": "uint8",
              "name": "support",
              "type": "uint8"
            },
            {
              "internalType": "uint96",
              "name": "votes",
              "type": "uint96"
            }
          ],
          "internalType": "struct IGovernorCompatibilityBravo.Receipt",
          "name": "",
          "type": "tuple"
        }
      ],
      "stateMutability": "view",
      "type": "function",
      "constant": true
    },
    {
      "inputs": [
        {
          "internalType": "uint256",
          "name": "proposalId",
          "type": "uint256"
        },
        {
          "internalType": "address",
          "name": "account",
          "type": "address"
        }
      ],
      "name": "hasVoted",
      "outputs": [
        {
          "internalType": "bool",
          "name": "",
          "type": "bool"
        }
      ],
      "stateMutability": "view",
      "type": "function",
      "constant": true
    },
    {
      "inputs": [
        {
          "internalType": "address[]",
          "name": "targets",
          "type": "address[]"
        },
        {
          "internalType": "uint256[]",
          "name": "values",
          "type": "uint256[]"
        },
        {
          "internalType": "bytes[]",
          "name": "calldatas",
          "type": "bytes[]"
        },
        {
          "internalType": "bytes32",
          "name": "descriptionHash",
          "type": "bytes32"
        }
      ],
      "name": "hashProposal",
      "outputs": [
        {
          "internalType": "uint256",
          "name": "",
          "type": "uint256"
        }
      ],
      "stateMutability": "pure",
      "type": "function",
      "constant": true
    },
    {
      "inputs": [],
      "name": "name",
      "outputs": [
        {
          "internalType": "string",
          "name": "",
          "type": "string"
        }
      ],
      "stateMutability": "view",
      "type": "function",
      "constant": true
    },
    {
      "inputs": [
        {
          "internalType": "uint256",
          "name": "proposalId",
          "type": "uint256"
        }
      ],
      "name": "proposalDeadline",
      "outputs": [
        {
          "internalType": "uint256",
          "name": "",
          "type": "uint256"
        }
      ],
      "stateMutability": "view",
      "type": "function",
      "constant": true
    },
    {
      "inputs": [
        {
          "internalType": "uint256",
          "name": "proposalId",
          "type": "uint256"
        }
      ],
      "name": "proposalEta",
      "outputs": [
        {
          "internalType": "uint256",
          "name": "",
          "type": "uint256"
        }
      ],
      "stateMutability": "view",
      "type": "function",
      "constant": true
    },
    {
      "inputs": [
        {
          "internalType": "uint256",
          "name": "proposalId",
          "type": "uint256"
        }
      ],
      "name": "proposalSnapshot",
      "outputs": [
        {
          "internalType": "uint256",
          "name": "",
          "type": "uint256"
        }
      ],
      "stateMutability": "view",
      "type": "function",
      "constant": true
    },
    {
      "inputs": [
        {
          "internalType": "uint256",
          "name": "proposalId",
          "type": "uint256"
        }
      ],
      "name": "proposals",
      "outputs": [
        {
          "internalType": "uint256",
          "name": "id",
          "type": "uint256"
        },
        {
          "internalType": "address",
          "name": "proposer",
          "type": "address"
        },
        {
          "internalType": "uint256",
          "name": "eta",
          "type": "uint256"
        },
        {
          "internalType": "uint256",
          "name": "startBlock",
          "type": "uint256"
        },
        {
          "internalType": "uint256",
          "name": "endBlock",
          "type": "uint256"
        },
        {
          "internalType": "uint256",
          "name": "forVotes",
          "type": "uint256"
        },
        {
          "internalType": "uint256",
          "name": "againstVotes",
          "type": "uint256"
        },
        {
          "internalType": "uint256",
          "name": "abstainVotes",
          "type": "uint256"
        },
        {
          "internalType": "bool",
          "name": "canceled",
          "type": "bool"
        },
        {
          "internalType": "bool",
          "name": "executed",
          "type": "bool"
        }
      ],
      "stateMutability": "view",
      "type": "function",
      "constant": true
    },
    {
      "inputs": [
        {
          "internalType": "address[]",
          "name": "targets",
          "type": "address[]"
        },
        {
          "internalType": "uint256[]",
          "name": "values",
          "type": "uint256[]"
        },
        {
          "internalType": "bytes[]",
          "name": "calldatas",
          "type": "bytes[]"
        },
        {
          "internalType": "bytes32",
          "name": "descriptionHash",
          "type": "bytes32"
        }
      ],
      "name": "queue",
      "outputs": [
        {
          "internalType": "uint256",
          "name": "",
          "type": "uint256"
        }
      ],
      "stateMutability": "nonpayable",
      "type": "function"
    },
    {
      "inputs": [
        {
          "internalType": "uint256",
          "name": "proposalId",
          "type": "uint256"
        }
      ],
      "name": "queue",
      "outputs": [],
      "stateMutability": "nonpayable",
      "type": "function"
    },
    {
      "inputs": [],
      "name": "quorumDenominator",
      "outputs": [
        {
          "internalType": "uint256",
          "name": "",
          "type": "uint256"
        }
      ],
      "stateMutability": "view",
      "type": "function",
      "constant": true
    },
    {
      "inputs": [],
      "name": "quorumNumerator",
      "outputs": [
        {
          "internalType": "uint256",
          "name": "",
          "type": "uint256"
        }
      ],
      "stateMutability": "view",
      "type": "function",
      "constant": true
    },
    {
      "inputs": [],
      "name": "quorumVotes",
      "outputs": [
        {
          "internalType": "uint256",
          "name": "",
          "type": "uint256"
        }
      ],
      "stateMutability": "view",
      "type": "function",
      "constant": true
    },
    {
      "inputs": [],
      "name": "timelock",
      "outputs": [
        {
          "internalType": "address",
          "name": "",
          "type": "address"
        }
      ],
      "stateMutability": "view",
      "type": "function",
      "constant": true
    },
    {
      "inputs": [],
      "name": "token",
      "outputs": [
        {
          "internalType": "contract ERC20Votes",
          "name": "",
          "type": "address"
        }
      ],
      "stateMutability": "view",
      "type": "function",
      "constant": true
    },
    {
      "inputs": [
        {
          "internalType": "uint256",
          "name": "newQuorumNumerator",
          "type": "uint256"
        }
      ],
      "name": "updateQuorumNumerator",
      "outputs": [],
      "stateMutability": "nonpayable",
      "type": "function"
    },
    {
      "inputs": [
        {
          "internalType": "contract TimelockController",
          "name": "newTimelock",
          "type": "address"
        }
      ],
      "name": "updateTimelock",
      "outputs": [],
      "stateMutability": "nonpayable",
      "type": "function"
    },
    {
      "inputs": [],
      "name": "version",
      "outputs": [
        {
          "internalType": "string",
          "name": "",
          "type": "string"
        }
      ],
      "stateMutability": "view",
      "type": "function",
      "constant": true
    },
    {
      "inputs": [],
      "name": "votingDelay",
      "outputs": [
        {
          "internalType": "uint256",
          "name": "",
          "type": "uint256"
        }
      ],
      "stateMutability": "pure",
      "type": "function",
      "constant": true
    },
    {
      "inputs": [],
      "name": "votingPeriod",
      "outputs": [
        {
          "internalType": "uint256",
          "name": "",
          "type": "uint256"
        }
      ],
      "stateMutability": "pure",
      "type": "function",
      "constant": true
    },
    {
      "inputs": [],
      "name": "proposalThreshold",
      "outputs": [
        {
          "internalType": "uint256",
          "name": "",
          "type": "uint256"
        }
      ],
      "stateMutability": "pure",
      "type": "function",
      "constant": true
    },
    {
      "inputs": [
        {
          "internalType": "uint256",
          "name": "blockNumber",
          "type": "uint256"
        }
      ],
      "name": "quorum",
      "outputs": [
        {
          "internalType": "uint256",
          "name": "",
          "type": "uint256"
        }
      ],
      "stateMutability": "view",
      "type": "function",
      "constant": true
    },
    {
      "inputs": [
        {
          "internalType": "address",
          "name": "account",
          "type": "address"
        },
        {
          "internalType": "uint256",
          "name": "blockNumber",
          "type": "uint256"
        }
      ],
      "name": "getVotes",
      "outputs": [
        {
          "internalType": "uint256",
          "name": "",
          "type": "uint256"
        }
      ],
      "stateMutability": "view",
      "type": "function",
      "constant": true
    },
    {
      "inputs": [
        {
          "internalType": "uint256",
          "name": "proposalId",
          "type": "uint256"
        }
      ],
      "name": "state",
      "outputs": [
        {
          "internalType": "enum IGovernor.ProposalState",
          "name": "",
          "type": "uint8"
        }
      ],
      "stateMutability": "view",
      "type": "function",
      "constant": true
    },
    {
      "inputs": [
        {
          "internalType": "address[]",
          "name": "targets",
          "type": "address[]"
        },
        {
          "internalType": "uint256[]",
          "name": "values",
          "type": "uint256[]"
        },
        {
          "internalType": "bytes[]",
          "name": "calldatas",
          "type": "bytes[]"
        },
        {
          "internalType": "string",
          "name": "description",
          "type": "string"
        }
      ],
      "name": "propose",
      "outputs": [
        {
          "internalType": "uint256",
          "name": "",
          "type": "uint256"
        }
      ],
      "stateMutability": "nonpayable",
      "type": "function"
    },
    {
      "inputs": [
        {
          "internalType": "address[]",
          "name": "targets",
          "type": "address[]"
        },
        {
          "internalType": "uint256[]",
          "name": "values",
          "type": "uint256[]"
        },
        {
          "internalType": "string[]",
          "name": "signatures",
          "type": "string[]"
        },
        {
          "internalType": "bytes[]",
          "name": "calldatas",
          "type": "bytes[]"
        },
        {
          "internalType": "string",
          "name": "description",
          "type": "string"
        }
      ],
      "name": "propose",
      "outputs": [
        {
          "internalType": "uint256",
          "name": "",
          "type": "uint256"
        }
      ],
      "stateMutability": "nonpayable",
      "type": "function"
    },
    {
      "inputs": [
        {
          "internalType": "bytes4",
          "name": "interfaceId",
          "type": "bytes4"
        }
      ],
      "name": "supportsInterface",
      "outputs": [
        {
          "internalType": "bool",
          "name": "",
          "type": "bool"
        }
      ],
      "stateMutability": "view",
      "type": "function",
      "constant": true
    }
  ],
  "bytecode": "0x6101406040523480156200001257600080fd5b506040516200415d3803806200415d833981016040819052620000359162000346565b806004836040518060400160405280600a81526020016926bca3b7bb32b93737b960b11b815250806200006d6200013660201b60201c565b815160209283012081519183019190912060c082815260e08290524660a0818152604080517f8b73c3c69bb8fe3d512ecc4cf759cc79239f7b179b0ffacaa9a75d522b39400f81890181905281830197909752606081019590955260808086019390935230858301528051808603909201825293909201909252805190840120905261010052815162000107916000919084019062000287565b50506001600160a01b031661012052620001218162000151565b506200012d816200021e565b505050620003c2565b6040805180820190915260018152603160f81b602082015290565b6064811115620001d95760405162461bcd60e51b815260206004820152604360248201527f476f7665726e6f72566f74657351756f72756d4672616374696f6e3a2071756f60448201527f72756d4e756d657261746f72206f7665722071756f72756d44656e6f6d696e616064820152623a37b960e91b608482015260a40160405180910390fd5b600380549082905560408051828152602081018490527f0553476bf02ef2726e8ce5ced78d63e26e602e4a2257b1f559418e24b4633997910160405180910390a15050565b600454604080516001600160a01b03928316815291831660208301527f08f74ea46ef7894f65eabfb5e6e695de773a000b47c529ab559178069b226401910160405180910390a1600480546001600160a01b0319166001600160a01b0392909216919091179055565b828054620002959062000385565b90600052602060002090601f016020900481019282620002b9576000855562000304565b82601f10620002d457805160ff191683800117855562000304565b8280016001018555821562000304579182015b8281111562000304578251825591602001919060010190620002e7565b506200031292915062000316565b5090565b5b8082111562000312576000815560010162000317565b6001600160a01b03811681146200034357600080fd5b50565b600080604083850312156200035a57600080fd5b825162000367816200032d565b60208401519092506200037a816200032d565b809150509250929050565b600181811c908216806200039a57607f821691505b60208210811415620003bc57634e487b7160e01b600052602260045260246000fd5b50919050565b60805160a05160c05160e0516101005161012051613d3d620004206000396000818161076c0152818161204d01526120e60152600061227a015260006122c9015260006122a401526000612228015260006122510152613d3d6000f3fe6080604052600436106101af5760003560e01c80637d5e81e2116100e85780637d5e81e21461048f57806397c3d334146104af578063a7713a70146104c3578063a890c910146104d8578063ab58fb8e146104f8578063b58131b014610518578063c01f9e371461052c578063c59057e41461054c578063d33219b41461056c578063da95691a14610599578063dd4e2ba5146105b9578063ddf0b009146105fc578063deaaa7cc1461061c578063e23a9a5214610650578063eb9019d41461071a578063f8ce560a1461073a578063fc0c546a1461075a578063fe0d94c11461078e57600080fd5b8063013cf08b146101b457806301ffc9a71461022f57806302a251a31461025f57806306f3f9e61461027e57806306fdde03146102a0578063160cbed7146102c257806324bc1a64146102e25780632656227d146102f75780632d63f6931461030a578063328dd9821461032a5780633932abb11461035a5780633bccf4fd1461036e5780633e4f49e61461038e57806340e58ee5146103bb57806343859632146103db57806354fd4d5014610425578063567813881461044f5780637b3c71d31461046f575b600080fd5b3480156101c057600080fd5b506101d46101cf3660046130b1565b6107a1565b604080519a8b526001600160a01b0390991660208b0152978901969096526060880194909452608087019290925260a086015260c085015260e084015215156101008301521515610120820152610140015b60405180910390f35b34801561023b57600080fd5b5061024f61024a3660046130ca565b61084a565b6040519015158152602001610226565b34801561026b57600080fd5b5061012c5b604051908152602001610226565b34801561028a57600080fd5b5061029e6102993660046130b1565b61085b565b005b3480156102ac57600080fd5b506102b56108a8565b6040516102269190613150565b3480156102ce57600080fd5b506102706102dd36600461339b565b61093a565b3480156102ee57600080fd5b50610270610b63565b61027061030536600461339b565b610b78565b34801561031657600080fd5b506102706103253660046130b1565b610c4b565b34801561033657600080fd5b5061034a6103453660046130b1565b610c82565b60405161022694939291906134f3565b34801561036657600080fd5b506005610270565b34801561037a57600080fd5b50610270610389366004613556565b610f13565b34801561039a57600080fd5b506103ae6103a93660046130b1565b610fa7565b60405161022691906135ba565b3480156103c757600080fd5b5061029e6103d63660046130b1565b610fb2565b3480156103e757600080fd5b5061024f6103f63660046135e2565b60008281526002602090815260408083206001600160a01b038516845260080190915290205460ff1692915050565b34801561043157600080fd5b506040805180820190915260018152603160f81b60208201526102b5565b34801561045b57600080fd5b5061027061046a366004613612565b6112c4565b34801561047b57600080fd5b5061027061048a36600461363e565b6112ed565b34801561049b57600080fd5b506102706104aa3660046136e4565b61133f565b3480156104bb57600080fd5b506064610270565b3480156104cf57600080fd5b50600354610270565b3480156104e457600080fd5b5061029e6104f3366004613790565b611356565b34801561050457600080fd5b506102706105133660046130b1565b611397565b34801561052457600080fd5b506000610270565b34801561053857600080fd5b506102706105473660046130b1565b61143b565b34801561055857600080fd5b5061027061056736600461339b565b61146a565b34801561057857600080fd5b506105816114a4565b6040516001600160a01b039091168152602001610226565b3480156105a557600080fd5b506102706105b436600461382c565b6114b3565b3480156105c557600080fd5b5060408051808201909152601a815279737570706f72743d627261766f2671756f72756d3d627261766f60301b60208201526102b5565b34801561060857600080fd5b5061029e6106173660046130b1565b6114d8565b34801561062857600080fd5b506102707f150214d74d59b7d1e90c73fc22ef3d991dd0a76b046543d4d80ab92d2a50328f81565b34801561065c57600080fd5b506106ea61066b3660046135e2565b60408051606081018252600080825260208201819052918101919091525060009182526002602090815260408084206001600160a01b0393909316845260089092018152918190208151606081018352905460ff8082161515835261010082041693820193909352620100009092046001600160601b03169082015290565b6040805182511515815260208084015160ff1690820152918101516001600160601b031690820152606001610226565b34801561072657600080fd5b506102706107353660046138fd565b611746565b34801561074657600080fd5b506102706107553660046130b1565b611752565b34801561076657600080fd5b506105817f000000000000000000000000000000000000000000000000000000000000000081565b61029e61079c3660046130b1565b61175d565b80600080808080808080806107b58a611397565b97506107c08b610c4b565b96506107cb8b61143b565b60008c815260026020526040812080546005820154600683015460078401546001600160a01b039093169e50949a50985092965091945061080b8d610fa7565b90506002816007811115610821576108216135a4565b1493506007816007811115610838576108386135a4565b14925050509193959799509193959799565b6000610855826119cb565b92915050565b6108636119f0565b6001600160a01b0316336001600160a01b03161461089c5760405162461bcd60e51b815260040161089390613929565b60405180910390fd5b6108a5816119fa565b50565b6060600080546108b79061395b565b80601f01602080910402602001604051908101604052809291908181526020018280546108e39061395b565b80156109305780601f1061090557610100808354040283529160200191610930565b820191906000526020600020905b81548152906001019060200180831161091357829003601f168201915b5050505050905090565b6000806109498686868661146a565b9050600461095682610fa7565b6007811115610967576109676135a4565b146109845760405162461bcd60e51b815260040161089390613990565b6000600460009054906101000a90046001600160a01b03166001600160a01b031663f27a0c926040518163ffffffff1660e01b815260040160206040518083038186803b1580156109d457600080fd5b505afa1580156109e8573d6000803e3d6000fd5b505050506040513d601f19601f82011682018060405250810190610a0c91906139d1565b6004805460405163b1c5f42760e01b81529293506001600160a01b03169163b1c5f42791610a45918b918b918b916000918c91016139ea565b60206040518083038186803b158015610a5d57600080fd5b505afa158015610a71573d6000803e3d6000fd5b505050506040513d601f19601f82011682018060405250810190610a9591906139d1565b600083815260056020526040808220929092556004805492516308f2a0bb60e41b81526001600160a01b0390931692638f2a0bb092610ae0928c928c928c9290918c918a9101613a38565b600060405180830381600087803b158015610afa57600080fd5b505af1158015610b0e573d6000803e3d6000fd5b505050507f9a2e42fd6722813d69113e7d0079d3d940171428df7373df9c7f7617cfda2892828242610b409190613aa6565b604080519283526020830191909152015b60405180910390a15095945050505050565b6000610b73610755600143613abe565b905090565b600080610b878686868661146a565b90506000610b9482610fa7565b90506004816007811115610baa57610baa6135a4565b1480610bc757506005816007811115610bc557610bc56135a4565b145b610be35760405162461bcd60e51b815260040161089390613990565b600082815260016020818152604092839020600201805460ff191690921790915590518381527f712ae1383f79ac853f8d882153778e0260ef8f03b504e2866e0593e04d2b291f910160405180910390a1610c418288888888611ac2565b5095945050505050565b60008181526001602090815260408083208151928301909152546001600160401b0316908190525b6001600160401b031692915050565b60608060608060006002600087815260200190815260200160002090508060010181600201826003018360040183805480602002602001604051908101604052809291908181526020018280548015610d0457602002820191906000526020600020905b81546001600160a01b03168152600190910190602001808311610ce6575b5050505050935082805480602002602001604051908101604052809291908181526020018280548015610d5657602002820191906000526020600020905b815481526020019060010190808311610d42575b5050505050925081805480602002602001604051908101604052809291908181526020016000905b82821015610e2a578382906000526020600020018054610d9d9061395b565b80601f0160208091040260200160405190810160405280929190818152602001828054610dc99061395b565b8015610e165780601f10610deb57610100808354040283529160200191610e16565b820191906000526020600020905b815481529060010190602001808311610df957829003601f168201915b505050505081526020019060010190610d7e565b50505050915080805480602002602001604051908101604052809291908181526020016000905b82821015610efd578382906000526020600020018054610e709061395b565b80601f0160208091040260200160405190810160405280929190818152602001828054610e9c9061395b565b8015610ee95780601f10610ebe57610100808354040283529160200191610ee9565b820191906000526020600020905b815481529060010190602001808311610ecc57829003601f168201915b505050505081526020019060010190610e51565b5050505090509450945094509450509193509193565b604080517f150214d74d59b7d1e90c73fc22ef3d991dd0a76b046543d4d80ab92d2a50328f602082015290810186905260ff851660608201526000908190610f7f90610f779060800160405160208183030381529060405280519060200120611ad6565b868686611b24565b9050610f9c87828860405180602001604052806000815250611b42565b979650505050505050565b600061085582611c4d565b600081815260026020526040902080546001600160a01b0316336001600160a01b03161480610ffa575060008154610ff8906001600160a01b0316610735600143613abe565b105b6110565760405162461bcd60e51b815260206004820152602760248201527f476f7665726e6f72427261766f3a2070726f706f7365722061626f76652074686044820152661c995cda1bdb1960ca1b6064820152608401610893565b6112bf816001018054806020026020016040519081016040528092919081815260200182805480156110b157602002820191906000526020600020905b81546001600160a01b03168152600190910190602001808311611093575b50505050508260020180548060200260200160405190810160405280929190818152602001828054801561110457602002820191906000526020600020905b8154815260200190600101908083116110f0575b50505050506112b584600301805480602002602001604051908101604052809291908181526020016000905b828210156111dc57838290600052602060002001805461114f9061395b565b80601f016020809104026020016040519081016040528092919081815260200182805461117b9061395b565b80156111c85780601f1061119d576101008083540402835291602001916111c8565b820191906000526020600020905b8154815290600101906020018083116111ab57829003601f168201915b505050505081526020019060010190611130565b50505060048701805460408051602080840282018101909252828152935060009084015b828210156112ac57838290600052602060002001805461121f9061395b565b80601f016020809104026020016040519081016040528092919081815260200182805461124b9061395b565b80156112985780601f1061126d57610100808354040283529160200191611298565b820191906000526020600020905b81548152906001019060200180831161127b57829003601f168201915b505050505081526020019060010190611200565b50505050611d28565b8460090154611e88565b505050565b6000803390506112e584828560405180602001604052806000815250611b42565b949350505050565b60008033905061133586828787878080601f016020809104026020016040519081016040528093929190818152602001838380828437600092019190915250611b4292505050565b9695505050505050565b600061134d85858585611e96565b95945050505050565b61135e6119f0565b6001600160a01b0316336001600160a01b03161461138e5760405162461bcd60e51b815260040161089390613929565b6108a581611efe565b6004805460008381526005602052604080822054905163d45c443560e01b8152938401529182916001600160a01b03169063d45c44359060240160206040518083038186803b1580156113e957600080fd5b505afa1580156113fd573d6000803e3d6000fd5b505050506040513d601f19601f8201168201806040525081019061142191906139d1565b9050806001146114315780611434565b60005b9392505050565b60008181526001602081815260408084208151928301909152909101546001600160401b031690819052610c73565b6000848484846040516020016114839493929190613ad5565b60408051601f19818403018152919052805160209091012095945050505050565b6004546001600160a01b031690565b60006114c3338787878787611f67565b61133586866114d28787611d28565b8561133f565b60008181526002602090815260409182902060018101805484518185028101850190955280855291936112bf9390929083018282801561154157602002820191906000526020600020905b81546001600160a01b03168152600190910190602001808311611523575b50505050508260020180548060200260200160405190810160405280929190818152602001828054801561159457602002820191906000526020600020905b815481526020019060010190808311611580575b505050505061173c84600301805480602002602001604051908101604052809291908181526020016000905b8282101561166c5783829060005260206000200180546115df9061395b565b80601f016020809104026020016040519081016040528092919081815260200182805461160b9061395b565b80156116585780601f1061162d57610100808354040283529160200191611658565b820191906000526020600020905b81548152906001019060200180831161163b57829003601f168201915b5050505050815260200190600101906115c0565b50505060048701805460408051602080840282018101909252828152935060009084015b828210156112ac5783829060005260206000200180546116af9061395b565b80601f01602080910402602001604051908101604052809291908181526020018280546116db9061395b565b80156117285780601f106116fd57610100808354040283529160200191611728565b820191906000526020600020905b81548152906001019060200180831161170b57829003601f168201915b505050505081526020019060010190611690565b846009015461093a565b60006114348383612024565b6000610855826120c9565b60008181526002602090815260409182902060018101805484518185028101850190955280855291936112bf939092908301828280156117c657602002820191906000526020600020905b81546001600160a01b031681526001909101906020018083116117a8575b50505050508260020180548060200260200160405190810160405280929190818152602001828054801561181957602002820191906000526020600020905b815481526020019060010190808311611805575b50505050506119c184600301805480602002602001604051908101604052809291908181526020016000905b828210156118f15783829060005260206000200180546118649061395b565b80601f01602080910402602001604051908101604052809291908181526020018280546118909061395b565b80156118dd5780601f106118b2576101008083540402835291602001916118dd565b820191906000526020600020905b8154815290600101906020018083116118c057829003601f168201915b505050505081526020019060010190611845565b50505060048701805460408051602080840282018101909252828152935060009084015b828210156112ac5783829060005260206000200180546119349061395b565b80601f01602080910402602001604051908101604052809291908181526020018280546119609061395b565b80156119ad5780601f10611982576101008083540402835291602001916119ad565b820191906000526020600020905b81548152906001019060200180831161199057829003601f168201915b505050505081526020019060010190611915565b8460090154610b78565b60006001600160e01b03198216636e665ced60e01b148061085557506108558261217c565b6000610b736114a4565b6064811115611a7d5760405162461bcd60e51b815260206004820152604360248201527f476f7665726e6f72566f74657351756f72756d4672616374696f6e3a2071756f60448201527f72756d4e756d657261746f72206f7665722071756f72756d44656e6f6d696e616064820152623a37b960e91b608482015260a401610893565b600380549082905560408051828152602081018490527f0553476bf02ef2726e8ce5ced78d63e26e602e4a2257b1f559418e24b4633997910160405180910390a15050565b611acf85858585856121b1565b5050505050565b6000610855611ae3612224565b8360405161190160f01b6020820152602281018390526042810182905260009060620160405160208183030381529060405280519060200120905092915050565b6000806000611b3587878787612317565b91509150610c41816123fa565b6000848152600160208190526040822090611b5c87610fa7565b6007811115611b6d57611b6d6135a4565b14611bc65760405162461bcd60e51b815260206004820152602360248201527f476f7665726e6f723a20766f7465206e6f742063757272656e746c792061637460448201526269766560e81b6064820152608401610893565b604080516020810190915281546001600160401b031690819052600090611bee908790611746565b9050611bfc878787846125b0565b856001600160a01b03167fb8e138887d0aa13bab447e82de9d5c1777041ecd21ca36ba824ff1e6c07ddda488878488604051611c3b9493929190613b20565b60405180910390a29695505050505050565b600080611c5983612750565b90506004816007811115611c6f57611c6f6135a4565b14611c7a5792915050565b60008381526005602052604090205480611c95575092915050565b60048054604051632ab0f52960e01b81529182018390526001600160a01b031690632ab0f5299060240160206040518083038186803b158015611cd757600080fd5b505afa158015611ceb573d6000803e3d6000fd5b505050506040513d601f19601f82011682018060405250810190611d0f9190613b48565b15611d1e575060079392505050565b5060059392505050565b6060600082516001600160401b03811115611d4557611d45613163565b604051908082528060200260200182016040528015611d7857816020015b6060815260200190600190039081611d635790505b50905060005b8451811015611e8057848181518110611d9957611d99613b6a565b602002602001015151600014611e3757848181518110611dbb57611dbb613b6a565b6020026020010151848281518110611dd557611dd5613b6a565b6020026020010151604051602401611ded9190613150565b60408051601f198184030181529082905291611e0891613b80565b6040519081900390206020820180516001600160e01b03166001600160e01b0319909216919091179052611e52565b838181518110611e4957611e49613b6a565b60200260200101515b828281518110611e6457611e64613b6a565b602002602001018190525080611e7990613b9c565b9050611d7e565b509392505050565b600061134d858585856128b6565b6000611ef233868686516001600160401b03811115611eb757611eb7613163565b604051908082528060200260200182016040528015611eea57816020015b6060815260200190600190039081611ed55790505b508787611f67565b61134d8585858561295e565b600454604080516001600160a01b03928316815291831660208301527f08f74ea46ef7894f65eabfb5e6e695de773a000b47c529ab559178069b226401910160405180910390a1600480546001600160a01b0319166001600160a01b0392909216919091179055565b805160208201206000611f858787611f7f8888611d28565b8561146a565b60008181526002602052604090206009810154919250906120195780546001600160a01b0319166001600160a01b038a161781558751611fce90600183019060208b0190612e67565b508651611fe490600283019060208a0190612ec8565b508551611ffa9060038301906020890190612f03565b5084516120109060048301906020880190612f5c565b50600981018390555b505050505050505050565b604051630748d63560e31b81526001600160a01b038381166004830152602482018390526000917f000000000000000000000000000000000000000000000000000000000000000090911690633a46b1a89060440160206040518083038186803b15801561209157600080fd5b505afa1580156120a5573d6000803e3d6000fd5b505050506040513d601f19601f8201168201806040525081019061143491906139d1565b60006064600354604051632394e7a360e21b8152600481018590527f00000000000000000000000000000000000000000000000000000000000000006001600160a01b031690638e539e8c9060240160206040518083038186803b15801561213057600080fd5b505afa158015612144573d6000803e3d6000fd5b505050506040513d601f19601f8201168201806040525081019061216891906139d1565b6121729190613bb7565b6108559190613bd6565b60006001600160e01b0319821663bf26d89760e01b148061085557506301ffc9a760e01b6001600160e01b0319831614610855565b6004805460405163e38335e560e01b81526001600160a01b039091169163e38335e59134916121eb918991899189916000918a91016139ea565b6000604051808303818588803b15801561220457600080fd5b505af1158015612218573d6000803e3d6000fd5b50505050505050505050565b60007f000000000000000000000000000000000000000000000000000000000000000046141561227357507f000000000000000000000000000000000000000000000000000000000000000090565b50604080517f00000000000000000000000000000000000000000000000000000000000000006020808301919091527f0000000000000000000000000000000000000000000000000000000000000000828401527f000000000000000000000000000000000000000000000000000000000000000060608301524660808301523060a0808401919091528351808403909101815260c0909201909252805191012090565b6000806fa2a8918ca85bafe22016d0b997e4df60600160ff1b0383111561234457506000905060036123f1565b8460ff16601b1415801561235c57508460ff16601c14155b1561236d57506000905060046123f1565b6040805160008082526020820180845289905260ff881692820192909252606081018690526080810185905260019060a0016020604051602081039080840390855afa1580156123c1573d6000803e3d6000fd5b5050604051601f1901519150506001600160a01b0381166123ea576000600192509250506123f1565b9150600090505b94509492505050565b600081600481111561240e5761240e6135a4565b14156124175750565b600181600481111561242b5761242b6135a4565b14156124745760405162461bcd60e51b815260206004820152601860248201527745434453413a20696e76616c6964207369676e617475726560401b6044820152606401610893565b6002816004811115612488576124886135a4565b14156124d65760405162461bcd60e51b815260206004820152601f60248201527f45434453413a20696e76616c6964207369676e6174757265206c656e677468006044820152606401610893565b60038160048111156124ea576124ea6135a4565b14156125435760405162461bcd60e51b815260206004820152602260248201527f45434453413a20696e76616c6964207369676e6174757265202773272076616c604482015261756560f01b6064820152608401610893565b6004816004811115612557576125576135a4565b14156108a55760405162461bcd60e51b815260206004820152602260248201527f45434453413a20696e76616c6964207369676e6174757265202776272076616c604482015261756560f01b6064820152608401610893565b60008481526002602090815260408083206001600160a01b038716845260088101909252909120805460ff161561263f5760405162461bcd60e51b815260206004820152602d60248201527f476f7665726e6f72436f6d7061746962696c697479427261766f3a20766f746560448201526c08185b1c9958591e4818d85cdd609a1b6064820152608401610893565b805460ff85166101000261ffff1990911617600117815561265f836129fc565b81546001600160601b0391909116620100000262010000600160701b031990911617815560ff84166126aa578282600601600082825461269f9190613aa6565b909155506127489050565b60ff8416600114156126ca578282600501600082825461269f9190613aa6565b60ff8416600214156126ea578282600701600082825461269f9190613aa6565b60405162461bcd60e51b815260206004820152602d60248201527f476f7665726e6f72436f6d7061746962696c697479427261766f3a20696e766160448201526c6c696420766f7465207479706560981b6064820152608401610893565b505050505050565b6000818152600160208181526040808420815160a08101835281546001600160401b0390811660808301908152825283518086018552958301541685529283019390935260029092015460ff808216158015948401949094526101009091041615156060820152906127c55750600792915050565b8060600151156127d85750600292915050565b805151436001600160401b0390911611156127f65750600092915050565b602081015151436001600160401b0390911611156128175750600192915050565b6128248160200151612a68565b156128685761283283612a97565b8015612854575060008381526002602052604090206006810154600590910154115b61285f576003611434565b60049392505050565b60405162461bcd60e51b815260206004820152601d60248201527f476f7665726e6f723a20756e6b6e6f776e2070726f706f73616c2069640000006044820152606401610893565b50919050565b6000806128c586868686612abe565b6000818152600560205260409020549091501561134d57600480546000838152600560205260409081902054905163c4d252f560e01b8152928301526001600160a01b03169063c4d252f590602401600060405180830381600087803b15801561292e57600080fd5b505af1158015612942573d6000803e3d6000fd5b5050506000828152600560205260408120555095945050505050565b60008061297033610735600143613abe565b10156129f05760405162461bcd60e51b815260206004820152604360248201527f476f7665726e6f72436f6d7061746962696c697479427261766f3a2070726f7060448201527f6f73657220766f7465732062656c6f772070726f706f73616c207468726573686064820152621bdb1960ea1b608482015260a401610893565b61134d85858585612bca565b60006001600160601b03821115612a645760405162461bcd60e51b815260206004820152602660248201527f53616665436173743a2076616c756520646f65736e27742066697420696e203960448201526536206269747360d01b6064820152608401610893565b5090565b6000612a7d82516001600160401b0316151590565b801561085557505051436001600160401b03909116111590565b60008181526002602052604081206005810154612ab661075585610c4b565b109392505050565b600080612acd8686868661146a565b90506000612ada82610fa7565b90506002816007811115612af057612af06135a4565b14158015612b1057506006816007811115612b0d57612b0d6135a4565b14155b8015612b2e57506007816007811115612b2b57612b2b6135a4565b14155b612b7a5760405162461bcd60e51b815260206004820152601d60248201527f476f7665726e6f723a2070726f706f73616c206e6f74206163746976650000006044820152606401610893565b60008281526001602052604090819020600201805461ff001916610100179055517f789cf55be980739dad1d0699b93b58e806b51c9d96619bfa8fe0a28abaa7b30c90610b519084815260200190565b600080612be0868686868051906020012061146a565b90508451865114612c035760405162461bcd60e51b815260040161089390613bf8565b8351865114612c245760405162461bcd60e51b815260040161089390613bf8565b6000865111612c705760405162461bcd60e51b815260206004820152601860248201527711dbdd995c9b9bdc8e88195b5c1d1e481c1c9bdc1bdcd85b60421b6044820152606401610893565b600081815260016020908152604091829020825191820190925281546001600160401b03169081905215612cf05760405162461bcd60e51b815260206004820152602160248201527f476f7665726e6f723a2070726f706f73616c20616c72656164792065786973746044820152607360f81b6064820152608401610893565b6000612cfc6005612de1565b612d0543612de1565b612d0f9190613c39565b90506000612d1e61012c612de1565b612d289083613c39565b9050612d348383612e49565b612d416001840182612e49565b7f7d84a6263ae0d98d3329bd7b46bb4e8d6f98cd35a7adb45c274c8b7fd5ebd5e084338b8b8d516001600160401b03811115612d7f57612d7f613163565b604051908082528060200260200182016040528015612db257816020015b6060815260200190600190039081612d9d5790505b508c88888e604051612dcc99989796959493929190613c64565b60405180910390a15091979650505050505050565b60006001600160401b03821115612a645760405162461bcd60e51b815260206004820152602660248201527f53616665436173743a2076616c756520646f65736e27742066697420696e203660448201526534206269747360d01b6064820152608401610893565b815467ffffffffffffffff19166001600160401b0391909116179055565b828054828255906000526020600020908101928215612ebc579160200282015b82811115612ebc57825182546001600160a01b0319166001600160a01b03909116178255602090920191600190910190612e87565b50612a64929150612fb5565b828054828255906000526020600020908101928215612ebc579160200282015b82811115612ebc578251825591602001919060010190612ee8565b828054828255906000526020600020908101928215612f50579160200282015b82811115612f505782518051612f40918491602090910190612fca565b5091602001919060010190612f23565b50612a6492915061303d565b828054828255906000526020600020908101928215612fa9579160200282015b82811115612fa95782518051612f99918491602090910190612fca565b5091602001919060010190612f7c565b50612a6492915061305a565b5b80821115612a645760008155600101612fb6565b828054612fd69061395b565b90600052602060002090601f016020900481019282612ff85760008555612ebc565b82601f1061301157805160ff1916838001178555612ebc565b82800160010185558215612ebc5791820182811115612ebc578251825591602001919060010190612ee8565b80821115612a645760006130518282613077565b5060010161303d565b80821115612a6457600061306e8282613077565b5060010161305a565b5080546130839061395b565b6000825580601f10613093575050565b601f0160209004906000526020600020908101906108a59190612fb5565b6000602082840312156130c357600080fd5b5035919050565b6000602082840312156130dc57600080fd5b81356001600160e01b03198116811461143457600080fd5b60005b8381101561310f5781810151838201526020016130f7565b8381111561311e576000848401525b50505050565b6000815180845261313c8160208601602086016130f4565b601f01601f19169290920160200192915050565b6020815260006114346020830184613124565b634e487b7160e01b600052604160045260246000fd5b604051601f8201601f191681016001600160401b03811182821017156131a1576131a1613163565b604052919050565b60006001600160401b038211156131c2576131c2613163565b5060051b60200190565b6001600160a01b03811681146108a557600080fd5b600082601f8301126131f257600080fd5b81356020613207613202836131a9565b613179565b82815260059290921b8401810191818101908684111561322657600080fd5b8286015b8481101561324a57803561323d816131cc565b835291830191830161322a565b509695505050505050565b600082601f83011261326657600080fd5b81356020613276613202836131a9565b82815260059290921b8401810191818101908684111561329557600080fd5b8286015b8481101561324a5780358352918301918301613299565b60006001600160401b038311156132c9576132c9613163565b6132dc601f8401601f1916602001613179565b90508281528383830111156132f057600080fd5b828260208301376000602084830101529392505050565b600082601f83011261331857600080fd5b81356020613328613202836131a9565b82815260059290921b8401810191818101908684111561334757600080fd5b8286015b8481101561324a5780356001600160401b0381111561336a5760008081fd5b8701603f8101891361337c5760008081fd5b61338d8986830135604084016132b0565b84525091830191830161334b565b600080600080608085870312156133b157600080fd5b84356001600160401b03808211156133c857600080fd5b6133d4888389016131e1565b955060208701359150808211156133ea57600080fd5b6133f688838901613255565b9450604087013591508082111561340c57600080fd5b5061341987828801613307565b949793965093946060013593505050565b600081518084526020808501945080840160005b838110156134635781516001600160a01b03168752958201959082019060010161343e565b509495945050505050565b600081518084526020808501945080840160005b8381101561346357815187529582019590820190600101613482565b600081518084526020808501808196508360051b8101915082860160005b858110156134e65782840389526134d4848351613124565b988501989350908401906001016134bc565b5091979650505050505050565b608081526000613506608083018761342a565b8281036020840152613518818761346e565b9050828103604084015261352c818661349e565b90508281036060840152610f9c818561349e565b803560ff8116811461355157600080fd5b919050565b600080600080600060a0868803121561356e57600080fd5b8535945061357e60208701613540565b935061358c60408701613540565b94979396509394606081013594506080013592915050565b634e487b7160e01b600052602160045260246000fd5b60208101600883106135dc57634e487b7160e01b600052602160045260246000fd5b91905290565b600080604083850312156135f557600080fd5b823591506020830135613607816131cc565b809150509250929050565b6000806040838503121561362557600080fd5b8235915061363560208401613540565b90509250929050565b6000806000806060858703121561365457600080fd5b8435935061366460208601613540565b925060408501356001600160401b038082111561368057600080fd5b818701915087601f83011261369457600080fd5b8135818111156136a357600080fd5b8860208285010111156136b557600080fd5b95989497505060200194505050565b600082601f8301126136d557600080fd5b611434838335602085016132b0565b600080600080608085870312156136fa57600080fd5b84356001600160401b038082111561371157600080fd5b61371d888389016131e1565b9550602087013591508082111561373357600080fd5b61373f88838901613255565b9450604087013591508082111561375557600080fd5b61376188838901613307565b9350606087013591508082111561377757600080fd5b50613784878288016136c4565b91505092959194509250565b6000602082840312156137a257600080fd5b8135611434816131cc565b600082601f8301126137be57600080fd5b813560206137ce613202836131a9565b82815260059290921b840181019181810190868411156137ed57600080fd5b8286015b8481101561324a5780356001600160401b038111156138105760008081fd5b61381e8986838b01016136c4565b8452509183019183016137f1565b600080600080600060a0868803121561384457600080fd5b85356001600160401b038082111561385b57600080fd5b61386789838a016131e1565b9650602088013591508082111561387d57600080fd5b61388989838a01613255565b9550604088013591508082111561389f57600080fd5b6138ab89838a016137ad565b945060608801359150808211156138c157600080fd5b6138cd89838a01613307565b935060808801359150808211156138e357600080fd5b506138f0888289016136c4565b9150509295509295909350565b6000806040838503121561391057600080fd5b823561391b816131cc565b946020939093013593505050565b602080825260189082015277476f7665726e6f723a206f6e6c79476f7665726e616e636560401b604082015260600190565b600181811c9082168061396f57607f821691505b602082108114156128b057634e487b7160e01b600052602260045260246000fd5b60208082526021908201527f476f7665726e6f723a2070726f706f73616c206e6f74207375636365737366756040820152601b60fa1b606082015260800190565b6000602082840312156139e357600080fd5b5051919050565b60a0815260006139fd60a083018861342a565b8281036020840152613a0f818861346e565b90508281036040840152613a23818761349e565b60608401959095525050608001529392505050565b60c081526000613a4b60c083018961342a565b8281036020840152613a5d818961346e565b90508281036040840152613a71818861349e565b60608401969096525050608081019290925260a0909101529392505050565b634e487b7160e01b600052601160045260246000fd5b60008219821115613ab957613ab9613a90565b500190565b600082821015613ad057613ad0613a90565b500390565b608081526000613ae8608083018761342a565b8281036020840152613afa818761346e565b90508281036040840152613b0e818661349e565b91505082606083015295945050505050565b84815260ff841660208201528260408201526080606082015260006113356080830184613124565b600060208284031215613b5a57600080fd5b8151801515811461143457600080fd5b634e487b7160e01b600052603260045260246000fd5b60008251613b928184602087016130f4565b9190910192915050565b6000600019821415613bb057613bb0613a90565b5060010190565b6000816000190483118215151615613bd157613bd1613a90565b500290565b600082613bf357634e487b7160e01b600052601260045260246000fd5b500490565b60208082526021908201527f476f7665726e6f723a20696e76616c69642070726f706f73616c206c656e67746040820152600d60fb1b606082015260800190565b60006001600160401b03808316818516808303821115613c5b57613c5b613a90565b01949350505050565b8981526001600160a01b038916602082015261012060408201819052600090613c8f8382018b61342a565b90508281036060840152613ca3818a61346e565b90508281036080840152613cb7818961349e565b905082810360a0840152613ccb818861349e565b6001600160401b0387811660c0860152861660e08501528381036101008501529050613cf78185613124565b9c9b50505050505050505050505056fea264697066735822122065ba126d39b84029f0d72865b4cec9f487f07c7329428054e81c3d7db1fb6ed064736f6c63430008090033",
  "immutableReferences": {
    "3553": [
      {
        "length": 32,
        "start": 1900
      },
      {
        "length": 32,
        "start": 8269
      },
      {
        "length": 32,
        "start": 8422
      }
    ],
    "6408": [
      {
        "length": 32,
        "start": 8785
      }
    ],
    "6410": [
      {
        "length": 32,
        "start": 8744
      }
    ],
    "6412": [
      {
        "length": 32,
        "start": 8868
      }
    ],
    "6414": [
      {
        "length": 32,
        "start": 8905
      }
    ],
    "6416": [
      {
        "length": 32,
        "start": 8826
      }
    ]
  },
  "source": "// SPDX-License-Identifier: MIT\npragma solidity ^0.8.0;\n\nimport \"@openzeppelin/contracts/governance/Governor.sol\";\nimport \"@openzeppelin/contracts/governance/compatibility/GovernorCompatibilityBravo.sol\";\nimport \"@openzeppelin/contracts/governance/extensions/GovernorVotes.sol\";\nimport \"@openzeppelin/contracts/governance/extensions/GovernorVotesQuorumFraction.sol\";\nimport \"@openzeppelin/contracts/governance/extensions/GovernorTimelockControl.sol\";\n\ncontract MyGovernor is Governor, GovernorCompatibilityBravo, GovernorVotes, GovernorVotesQuorumFraction, GovernorTimelockControl {\n    constructor(ERC20Votes _token, TimelockController _timelock)\n        Governor(\"MyGovernor\")\n        GovernorVotes(_token)\n        GovernorVotesQuorumFraction(4) // 4% quorum\n        GovernorTimelockControl(_timelock)\n    {}\n\n    function votingDelay() public pure override returns (uint256) {\n        return 5; // 1 day i.e. 13.14s * 6575\n    }\n\n    function votingPeriod() public pure override returns (uint256) {\n        return 300; // 1 week i.e. 13.14s * 46027\n    }\n\n    function proposalThreshold() public pure override returns (uint256) { // soglia di crediti minima necessaria per votare.\n        return 0;\n    }\n\n    // The functions below are overrides required by Solidity.\n    function quorum(uint256 blockNumber)\n        public\n        view\n        override(IGovernor, GovernorVotesQuorumFraction)\n        returns (uint256)\n    {\n        return super.quorum(blockNumber);\n    }\n\n    function getVotes(address account, uint256 blockNumber)\n        public\n        view\n        override(IGovernor, GovernorVotes)\n        returns (uint256)\n    {\n        return super.getVotes(account, blockNumber);\n    }\n\n    function state(uint256 proposalId)\n        public\n        view\n        override(Governor, IGovernor, GovernorTimelockControl)\n        returns (ProposalState)\n    {\n        return super.state(proposalId);\n    }\n\n    function propose(address[] memory targets, uint256[] memory values, bytes[] memory calldatas, string memory description)\n        public\n        override(Governor, GovernorCompatibilityBravo, IGovernor)\n        returns (uint256)\n    {\n        return super.propose(targets, values, calldatas, description);\n    }\n\n    function _execute(uint256 proposalId, address[] memory targets, uint256[] memory values, bytes[] memory calldatas, bytes32 descriptionHash)\n        internal\n        override(Governor, GovernorTimelockControl)\n    {\n        super._execute(proposalId, targets, values, calldatas, descriptionHash);\n    }\n\n    function _cancel(address[] memory targets, uint256[] memory values, bytes[] memory calldatas, bytes32 descriptionHash)\n        internal\n        override(Governor, GovernorTimelockControl)\n        returns (uint256)\n    {\n        return super._cancel(targets, values, calldatas, descriptionHash);\n    }\n\n    function _executor()\n        internal\n        view\n        override(Governor, GovernorTimelockControl)\n        returns (address)\n    {\n        return super._executor();\n    }\n\n    function supportsInterface(bytes4 interfaceId)\n        public\n        view\n        override(Governor, IERC165, GovernorTimelockControl)\n        returns (bool)\n    {\n        return super.supportsInterface(interfaceId);\n    }\n}",
  "sourcePath": "/home/luca/workspace/smartcontracts/myToken/contracts/MyGovernor.sol",
  "compiler": {
    "name": "solc",
    "version": "0.8.9+commit.e5eed63a.Emscripten.clang"
  },
  "schemaVersion": "3.4.3",
  "updatedAt": "2021-11-07T14:25:27.649Z",
  "networkType": "ethereum",
  "devdoc": {
    "kind": "dev",
    "methods": {
      "COUNTING_MODE()": {
        "details": "A description of the possible `support` values for {castVote} and the way these votes are counted, meant to be consumed by UIs to show correct vote options and interpret the results. The string is a URL-encoded sequence of key-value pairs that each describe one aspect, for example `support=bravo&quorum=for,abstain`. There are 2 standard keys: `support` and `quorum`. - `support=bravo` refers to the vote options 0 = For, 1 = Against, 2 = Abstain, as in `GovernorBravo`. - `quorum=bravo` means that only For votes are counted towards quorum. - `quorum=for,abstain` means that both For and Abstain votes are counted towards quorum. NOTE: The string can be decoded by the standard https://developer.mozilla.org/en-US/docs/Web/API/URLSearchParams[`URLSearchParams`] JavaScript class."
      },
      "cancel(uint256)": {
        "details": "Cancels a proposal only if sender is the proposer, or proposer delegates dropped below proposal threshold."
      },
      "castVote(uint256,uint8)": {
        "details": "See {IGovernor-castVote}."
      },
      "castVoteBySig(uint256,uint8,uint8,bytes32,bytes32)": {
        "details": "See {IGovernor-castVoteBySig}."
      },
      "castVoteWithReason(uint256,uint8,string)": {
        "details": "See {IGovernor-castVoteWithReason}."
      },
      "execute(address[],uint256[],bytes[],bytes32)": {
        "details": "See {IGovernor-execute}."
      },
      "execute(uint256)": {
        "details": "See {IGovernorCompatibilityBravo-execute}."
      },
      "getActions(uint256)": {
        "details": "See {IGovernorCompatibilityBravo-getActions}."
      },
      "getReceipt(uint256,address)": {
        "details": "See {IGovernorCompatibilityBravo-getReceipt}."
      },
      "hasVoted(uint256,address)": {
        "details": "See {IGovernor-hasVoted}."
      },
      "hashProposal(address[],uint256[],bytes[],bytes32)": {
        "details": "See {IGovernor-hashProposal}. The proposal id is produced by hashing the RLC encoded `targets` array, the `values` array, the `calldatas` array and the descriptionHash (bytes32 which itself is the keccak256 hash of the description string). This proposal id can be produced from the proposal data which is part of the {ProposalCreated} event. It can even be computed in advance, before the proposal is submitted. Note that the chainId and the governor address are not part of the proposal id computation. Consequently, the same proposal (with same operation and same description) will have the same id if submitted on multiple governors accross multiple networks. This also means that in order to execute the same operation twice (on the same governor) the proposer will have to change the description in order to avoid proposal id conflicts."
      },
      "name()": {
        "details": "See {IGovernor-name}."
      },
      "proposalDeadline(uint256)": {
        "details": "See {IGovernor-proposalDeadline}."
      },
      "proposalEta(uint256)": {
        "details": "Public accessor to check the eta of a queued proposal"
      },
      "proposalSnapshot(uint256)": {
        "details": "See {IGovernor-proposalSnapshot}."
      },
      "proposalThreshold()": {
        "details": "Part of the Governor Bravo's interface: _\"The number of votes required in order for a voter to become a proposer\"_."
      },
      "proposals(uint256)": {
        "details": "See {IGovernorCompatibilityBravo-proposals}."
      },
      "propose(address[],uint256[],string[],bytes[],string)": {
        "details": "See {IGovernorCompatibilityBravo-propose}."
      },
      "queue(address[],uint256[],bytes[],bytes32)": {
        "details": "Function to queue a proposal to the timelock."
      },
      "queue(uint256)": {
        "details": "See {IGovernorCompatibilityBravo-queue}."
      },
      "quorumVotes()": {
        "details": "See {IGovernorCompatibilityBravo-quorumVotes}."
      },
      "timelock()": {
        "details": "Public accessor to check the address of the timelock"
      },
      "updateTimelock(address)": {
        "details": "Public endpoint to update the underlying timelock instance. Restricted to the timelock itself, so updates must be proposed, scheduled and executed using the {Governor} workflow."
      },
      "version()": {
        "details": "See {IGovernor-version}."
      },
      "votingDelay()": {
        "details": "delay, in number of block, between the proposal is created and the vote starts. This can be increassed to leave time for users to buy voting power, of delegate it, before the voting of a proposal starts."
      },
      "votingPeriod()": {
        "details": "delay, in number of blocks, between the vote start and vote ends. Note: the {votingDelay} can delay the start of the vote. This must be considered when setting the voting duration compared to the voting delay."
      }
    },
    "version": 1
  },
  "userdoc": {
    "kind": "user",
    "methods": {
      "COUNTING_MODE()": {
        "notice": "module:voting"
      },
      "votingDelay()": {
        "notice": "module:user-config"
      },
      "votingPeriod()": {
        "notice": "module:user-config"
      }
    },
    "version": 1
  }
}