{
  "contractName": "MyTimelockController",
  "abi": [
    {
      "inputs": [
        {
          "internalType": "uint256",
          "name": "timelock",
          "type": "uint256"
        },
        {
          "internalType": "address[]",
          "name": "proposers",
          "type": "address[]"
        },
        {
          "internalType": "address[]",
          "name": "executors",
          "type": "address[]"
        }
      ],
      "stateMutability": "nonpayable",
      "type": "constructor"
    },
    {
      "anonymous": false,
      "inputs": [
        {
          "indexed": true,
          "internalType": "bytes32",
          "name": "id",
          "type": "bytes32"
        },
        {
          "indexed": true,
          "internalType": "uint256",
          "name": "index",
          "type": "uint256"
        },
        {
          "indexed": false,
          "internalType": "address",
          "name": "target",
          "type": "address"
        },
        {
          "indexed": false,
          "internalType": "uint256",
          "name": "value",
          "type": "uint256"
        },
        {
          "indexed": false,
          "internalType": "bytes",
          "name": "data",
          "type": "bytes"
        }
      ],
      "name": "CallExecuted",
      "type": "event"
    },
    {
      "anonymous": false,
      "inputs": [
        {
          "indexed": true,
          "internalType": "bytes32",
          "name": "id",
          "type": "bytes32"
        },
        {
          "indexed": true,
          "internalType": "uint256",
          "name": "index",
          "type": "uint256"
        },
        {
          "indexed": false,
          "internalType": "address",
          "name": "target",
          "type": "address"
        },
        {
          "indexed": false,
          "internalType": "uint256",
          "name": "value",
          "type": "uint256"
        },
        {
          "indexed": false,
          "internalType": "bytes",
          "name": "data",
          "type": "bytes"
        },
        {
          "indexed": false,
          "internalType": "bytes32",
          "name": "predecessor",
          "type": "bytes32"
        },
        {
          "indexed": false,
          "internalType": "uint256",
          "name": "delay",
          "type": "uint256"
        }
      ],
      "name": "CallScheduled",
      "type": "event"
    },
    {
      "anonymous": false,
      "inputs": [
        {
          "indexed": true,
          "internalType": "bytes32",
          "name": "id",
          "type": "bytes32"
        }
      ],
      "name": "Cancelled",
      "type": "event"
    },
    {
      "anonymous": false,
      "inputs": [
        {
          "indexed": false,
          "internalType": "uint256",
          "name": "oldDuration",
          "type": "uint256"
        },
        {
          "indexed": false,
          "internalType": "uint256",
          "name": "newDuration",
          "type": "uint256"
        }
      ],
      "name": "MinDelayChange",
      "type": "event"
    },
    {
      "anonymous": false,
      "inputs": [
        {
          "indexed": true,
          "internalType": "bytes32",
          "name": "role",
          "type": "bytes32"
        },
        {
          "indexed": true,
          "internalType": "bytes32",
          "name": "previousAdminRole",
          "type": "bytes32"
        },
        {
          "indexed": true,
          "internalType": "bytes32",
          "name": "newAdminRole",
          "type": "bytes32"
        }
      ],
      "name": "RoleAdminChanged",
      "type": "event"
    },
    {
      "anonymous": false,
      "inputs": [
        {
          "indexed": true,
          "internalType": "bytes32",
          "name": "role",
          "type": "bytes32"
        },
        {
          "indexed": true,
          "internalType": "address",
          "name": "account",
          "type": "address"
        },
        {
          "indexed": true,
          "internalType": "address",
          "name": "sender",
          "type": "address"
        }
      ],
      "name": "RoleGranted",
      "type": "event"
    },
    {
      "anonymous": false,
      "inputs": [
        {
          "indexed": true,
          "internalType": "bytes32",
          "name": "role",
          "type": "bytes32"
        },
        {
          "indexed": true,
          "internalType": "address",
          "name": "account",
          "type": "address"
        },
        {
          "indexed": true,
          "internalType": "address",
          "name": "sender",
          "type": "address"
        }
      ],
      "name": "RoleRevoked",
      "type": "event"
    },
    {
      "inputs": [],
      "name": "DEFAULT_ADMIN_ROLE",
      "outputs": [
        {
          "internalType": "bytes32",
          "name": "",
          "type": "bytes32"
        }
      ],
      "stateMutability": "view",
      "type": "function",
      "constant": true
    },
    {
      "inputs": [],
      "name": "EXECUTOR_ROLE",
      "outputs": [
        {
          "internalType": "bytes32",
          "name": "",
          "type": "bytes32"
        }
      ],
      "stateMutability": "view",
      "type": "function",
      "constant": true
    },
    {
      "inputs": [],
      "name": "PROPOSER_ROLE",
      "outputs": [
        {
          "internalType": "bytes32",
          "name": "",
          "type": "bytes32"
        }
      ],
      "stateMutability": "view",
      "type": "function",
      "constant": true
    },
    {
      "inputs": [],
      "name": "TIMELOCK_ADMIN_ROLE",
      "outputs": [
        {
          "internalType": "bytes32",
          "name": "",
          "type": "bytes32"
        }
      ],
      "stateMutability": "view",
      "type": "function",
      "constant": true
    },
    {
      "inputs": [
        {
          "internalType": "bytes32",
          "name": "id",
          "type": "bytes32"
        }
      ],
      "name": "cancel",
      "outputs": [],
      "stateMutability": "nonpayable",
      "type": "function"
    },
    {
      "inputs": [
        {
          "internalType": "address",
          "name": "target",
          "type": "address"
        },
        {
          "internalType": "uint256",
          "name": "value",
          "type": "uint256"
        },
        {
          "internalType": "bytes",
          "name": "data",
          "type": "bytes"
        },
        {
          "internalType": "bytes32",
          "name": "predecessor",
          "type": "bytes32"
        },
        {
          "internalType": "bytes32",
          "name": "salt",
          "type": "bytes32"
        }
      ],
      "name": "execute",
      "outputs": [],
      "stateMutability": "payable",
      "type": "function",
      "payable": true
    },
    {
      "inputs": [
        {
          "internalType": "address[]",
          "name": "targets",
          "type": "address[]"
        },
        {
          "internalType": "uint256[]",
          "name": "values",
          "type": "uint256[]"
        },
        {
          "internalType": "bytes[]",
          "name": "datas",
          "type": "bytes[]"
        },
        {
          "internalType": "bytes32",
          "name": "predecessor",
          "type": "bytes32"
        },
        {
          "internalType": "bytes32",
          "name": "salt",
          "type": "bytes32"
        }
      ],
      "name": "executeBatch",
      "outputs": [],
      "stateMutability": "payable",
      "type": "function",
      "payable": true
    },
    {
      "inputs": [],
      "name": "getMinDelay",
      "outputs": [
        {
          "internalType": "uint256",
          "name": "duration",
          "type": "uint256"
        }
      ],
      "stateMutability": "view",
      "type": "function",
      "constant": true
    },
    {
      "inputs": [
        {
          "internalType": "bytes32",
          "name": "role",
          "type": "bytes32"
        }
      ],
      "name": "getRoleAdmin",
      "outputs": [
        {
          "internalType": "bytes32",
          "name": "",
          "type": "bytes32"
        }
      ],
      "stateMutability": "view",
      "type": "function",
      "constant": true
    },
    {
      "inputs": [
        {
          "internalType": "bytes32",
          "name": "id",
          "type": "bytes32"
        }
      ],
      "name": "getTimestamp",
      "outputs": [
        {
          "internalType": "uint256",
          "name": "timestamp",
          "type": "uint256"
        }
      ],
      "stateMutability": "view",
      "type": "function",
      "constant": true
    },
    {
      "inputs": [
        {
          "internalType": "bytes32",
          "name": "role",
          "type": "bytes32"
        },
        {
          "internalType": "address",
          "name": "account",
          "type": "address"
        }
      ],
      "name": "grantRole",
      "outputs": [],
      "stateMutability": "nonpayable",
      "type": "function"
    },
    {
      "inputs": [
        {
          "internalType": "bytes32",
          "name": "role",
          "type": "bytes32"
        },
        {
          "internalType": "address",
          "name": "account",
          "type": "address"
        }
      ],
      "name": "hasRole",
      "outputs": [
        {
          "internalType": "bool",
          "name": "",
          "type": "bool"
        }
      ],
      "stateMutability": "view",
      "type": "function",
      "constant": true
    },
    {
      "inputs": [
        {
          "internalType": "address",
          "name": "target",
          "type": "address"
        },
        {
          "internalType": "uint256",
          "name": "value",
          "type": "uint256"
        },
        {
          "internalType": "bytes",
          "name": "data",
          "type": "bytes"
        },
        {
          "internalType": "bytes32",
          "name": "predecessor",
          "type": "bytes32"
        },
        {
          "internalType": "bytes32",
          "name": "salt",
          "type": "bytes32"
        }
      ],
      "name": "hashOperation",
      "outputs": [
        {
          "internalType": "bytes32",
          "name": "hash",
          "type": "bytes32"
        }
      ],
      "stateMutability": "pure",
      "type": "function",
      "constant": true
    },
    {
      "inputs": [
        {
          "internalType": "address[]",
          "name": "targets",
          "type": "address[]"
        },
        {
          "internalType": "uint256[]",
          "name": "values",
          "type": "uint256[]"
        },
        {
          "internalType": "bytes[]",
          "name": "datas",
          "type": "bytes[]"
        },
        {
          "internalType": "bytes32",
          "name": "predecessor",
          "type": "bytes32"
        },
        {
          "internalType": "bytes32",
          "name": "salt",
          "type": "bytes32"
        }
      ],
      "name": "hashOperationBatch",
      "outputs": [
        {
          "internalType": "bytes32",
          "name": "hash",
          "type": "bytes32"
        }
      ],
      "stateMutability": "pure",
      "type": "function",
      "constant": true
    },
    {
      "inputs": [
        {
          "internalType": "bytes32",
          "name": "id",
          "type": "bytes32"
        }
      ],
      "name": "isOperation",
      "outputs": [
        {
          "internalType": "bool",
          "name": "pending",
          "type": "bool"
        }
      ],
      "stateMutability": "view",
      "type": "function",
      "constant": true
    },
    {
      "inputs": [
        {
          "internalType": "bytes32",
          "name": "id",
          "type": "bytes32"
        }
      ],
      "name": "isOperationDone",
      "outputs": [
        {
          "internalType": "bool",
          "name": "done",
          "type": "bool"
        }
      ],
      "stateMutability": "view",
      "type": "function",
      "constant": true
    },
    {
      "inputs": [
        {
          "internalType": "bytes32",
          "name": "id",
          "type": "bytes32"
        }
      ],
      "name": "isOperationPending",
      "outputs": [
        {
          "internalType": "bool",
          "name": "pending",
          "type": "bool"
        }
      ],
      "stateMutability": "view",
      "type": "function",
      "constant": true
    },
    {
      "inputs": [
        {
          "internalType": "bytes32",
          "name": "id",
          "type": "bytes32"
        }
      ],
      "name": "isOperationReady",
      "outputs": [
        {
          "internalType": "bool",
          "name": "ready",
          "type": "bool"
        }
      ],
      "stateMutability": "view",
      "type": "function",
      "constant": true
    },
    {
      "inputs": [
        {
          "internalType": "bytes32",
          "name": "role",
          "type": "bytes32"
        },
        {
          "internalType": "address",
          "name": "account",
          "type": "address"
        }
      ],
      "name": "renounceRole",
      "outputs": [],
      "stateMutability": "nonpayable",
      "type": "function"
    },
    {
      "inputs": [
        {
          "internalType": "bytes32",
          "name": "role",
          "type": "bytes32"
        },
        {
          "internalType": "address",
          "name": "account",
          "type": "address"
        }
      ],
      "name": "revokeRole",
      "outputs": [],
      "stateMutability": "nonpayable",
      "type": "function"
    },
    {
      "inputs": [
        {
          "internalType": "address",
          "name": "target",
          "type": "address"
        },
        {
          "internalType": "uint256",
          "name": "value",
          "type": "uint256"
        },
        {
          "internalType": "bytes",
          "name": "data",
          "type": "bytes"
        },
        {
          "internalType": "bytes32",
          "name": "predecessor",
          "type": "bytes32"
        },
        {
          "internalType": "bytes32",
          "name": "salt",
          "type": "bytes32"
        },
        {
          "internalType": "uint256",
          "name": "delay",
          "type": "uint256"
        }
      ],
      "name": "schedule",
      "outputs": [],
      "stateMutability": "nonpayable",
      "type": "function"
    },
    {
      "inputs": [
        {
          "internalType": "address[]",
          "name": "targets",
          "type": "address[]"
        },
        {
          "internalType": "uint256[]",
          "name": "values",
          "type": "uint256[]"
        },
        {
          "internalType": "bytes[]",
          "name": "datas",
          "type": "bytes[]"
        },
        {
          "internalType": "bytes32",
          "name": "predecessor",
          "type": "bytes32"
        },
        {
          "internalType": "bytes32",
          "name": "salt",
          "type": "bytes32"
        },
        {
          "internalType": "uint256",
          "name": "delay",
          "type": "uint256"
        }
      ],
      "name": "scheduleBatch",
      "outputs": [],
      "stateMutability": "nonpayable",
      "type": "function"
    },
    {
      "inputs": [
        {
          "internalType": "bytes4",
          "name": "interfaceId",
          "type": "bytes4"
        }
      ],
      "name": "supportsInterface",
      "outputs": [
        {
          "internalType": "bool",
          "name": "",
          "type": "bool"
        }
      ],
      "stateMutability": "view",
      "type": "function",
      "constant": true
    },
    {
      "inputs": [
        {
          "internalType": "uint256",
          "name": "newDelay",
          "type": "uint256"
        }
      ],
      "name": "updateDelay",
      "outputs": [],
      "stateMutability": "nonpayable",
      "type": "function"
    },
    {
      "stateMutability": "payable",
      "type": "receive",
      "payable": true
    }
  ],
  "bytecode": "0x60806040523480156200001157600080fd5b5060405162001dae38038062001dae8339810160408190526200003491620003aa565b8282826200005260008051602062001d4e83398151915280620001cf565b6200007c60008051602062001d6e83398151915260008051602062001d4e833981519152620001cf565b620000a660008051602062001d8e83398151915260008051602062001d4e833981519152620001cf565b620000c160008051602062001d4e833981519152336200021a565b620000dc60008051602062001d4e833981519152306200021a565b60005b825181101562000139576200012660008051602062001d6e8339815191528483815181106200011257620001126200041e565b60200260200101516200021a60201b60201c565b620001318162000434565b9050620000df565b5060005b815181101562000183576200017060008051602062001d8e8339815191528383815181106200011257620001126200041e565b6200017b8162000434565b90506200013d565b5060028390556040805160008152602081018590527f11c24f4ead16507c69ac467fbd5e4eed5fb5c699626d2cc6d66421df253886d5910160405180910390a15050505050506200045e565b600082815260208190526040808220600101805490849055905190918391839186917fbd79b86ffe0ab8e8776151514217cd7cacd52c909f66475c3af44e129f0b00ff9190a4505050565b6200022682826200022a565b5050565b6000828152602081815260408083206001600160a01b038516845290915290205460ff1662000226576000828152602081815260408083206001600160a01b03851684529091529020805460ff19166001179055620002863390565b6001600160a01b0316816001600160a01b0316837f2f8788117e7eff1d82e926ec794901d17c78024a50270940304540a733656f0d60405160405180910390a45050565b634e487b7160e01b600052604160045260246000fd5b80516001600160a01b0381168114620002f857600080fd5b919050565b600082601f8301126200030f57600080fd5b815160206001600160401b03808311156200032e576200032e620002ca565b8260051b604051601f19603f83011681018181108482111715620003565762000356620002ca565b6040529384528581018301938381019250878511156200037557600080fd5b83870191505b848210156200039f576200038f82620002e0565b835291830191908301906200037b565b979650505050505050565b600080600060608486031215620003c057600080fd5b835160208501519093506001600160401b0380821115620003e057600080fd5b620003ee87838801620002fd565b935060408601519150808211156200040557600080fd5b506200041486828701620002fd565b9150509250925092565b634e487b7160e01b600052603260045260246000fd5b60006000198214156200045757634e487b7160e01b600052601160045260246000fd5b5060010190565b6118e0806200046e6000396000f3fe60806040526004361061011f5760003560e01c806301d5062a1461012b57806301ffc9a71461014d57806307bd0265146101825780630d3cf6fc146101b2578063134008d3146101e657806313bc9f20146101f9578063248a9ca3146102195780632ab0f529146102395780632f2ff15d1461025957806331d507501461027957806336568abe14610299578063584b153e146102b957806364d62353146102d95780638065657f146102f95780638f2a0bb0146103195780638f61f4f51461033957806391d148541461035b578063a217fddf1461037b578063b1c5f42714610390578063c4d252f5146103b0578063d45c4435146103d0578063d547741f146103f0578063e38335e514610410578063f27a0c921461042357600080fd5b3661012657005b600080fd5b34801561013757600080fd5b5061014b61014636600461112d565b610438565b005b34801561015957600080fd5b5061016d6101683660046111a1565b6104bc565b60405190151581526020015b60405180910390f35b34801561018e57600080fd5b506101a460008051602061188b83398151915281565b604051908152602001610179565b3480156101be57600080fd5b506101a47f5f58e3a2316349923ce3780f8d587db2d72378aed66a8261c916544fa6846ca581565b61014b6101f43660046111cb565b6104f3565b34801561020557600080fd5b5061016d610214366004611236565b610559565b34801561022557600080fd5b506101a4610234366004611236565b61057e565b34801561024557600080fd5b5061016d610254366004611236565b610593565b34801561026557600080fd5b5061014b61027436600461124f565b6105a7565b34801561028557600080fd5b5061016d610294366004611236565b6105c9565b3480156102a557600080fd5b5061014b6102b436600461124f565b6105dc565b3480156102c557600080fd5b5061016d6102d4366004611236565b61065f565b3480156102e557600080fd5b5061014b6102f4366004611236565b61066c565b34801561030557600080fd5b506101a46103143660046111cb565b610710565b34801561032557600080fd5b5061014b6103343660046112bf565b61074f565b34801561034557600080fd5b506101a460008051602061186b83398151915281565b34801561036757600080fd5b5061016d61037636600461124f565b610890565b34801561038757600080fd5b506101a4600081565b34801561039c57600080fd5b506101a46103ab366004611370565b6108b9565b3480156103bc57600080fd5b5061014b6103cb366004611236565b6108fe565b3480156103dc57600080fd5b506101a46103eb366004611236565b6109c2565b3480156103fc57600080fd5b5061014b61040b36600461124f565b6109d4565b61014b61041e366004611370565b6109f1565b34801561042f57600080fd5b506002546101a4565b60008051602061186b8339815191526104518133610b14565b6000610461898989898989610710565b905061046d8184610b78565b6000817f4cf4410cc57040e44862ef0f45f3dd5a5e02db8eb8add648d4b0e236f1d07dca8b8b8b8b8b8a6040516104a996959493929190611441565b60405180910390a3505050505050505050565b60006001600160e01b03198216637965db0b60e01b14806104ed57506301ffc9a760e01b6001600160e01b03198316145b92915050565b60008051602061188b83398151915261050d816000610890565b61051b5761051b8133610b14565b600061052b888888888888610710565b90506105378185610c67565b6105468160008a8a8a8a610cf8565b61054f81610e0c565b5050505050505050565b600080610565836109c2565b90506001811180156105775750428111155b9392505050565b60009081526020819052604090206001015490565b600060016105a0836109c2565b1492915050565b6105b08261057e565b6105ba8133610b14565b6105c48383610e45565b505050565b6000806105d5836109c2565b1192915050565b6001600160a01b03811633146106515760405162461bcd60e51b815260206004820152602f60248201527f416363657373436f6e74726f6c3a2063616e206f6e6c792072656e6f756e636560448201526e103937b632b9903337b91039b2b63360891b60648201526084015b60405180910390fd5b61065b8282610ec9565b5050565b600060016105d5836109c2565b3330146106cf5760405162461bcd60e51b815260206004820152602b60248201527f54696d656c6f636b436f6e74726f6c6c65723a2063616c6c6572206d7573742060448201526a62652074696d656c6f636b60a81b6064820152608401610648565b60025460408051918252602082018390527f11c24f4ead16507c69ac467fbd5e4eed5fb5c699626d2cc6d66421df253886d5910160405180910390a1600255565b600086868686868660405160200161072d96959493929190611441565b6040516020818303038152906040528051906020012090509695505050505050565b60008051602061186b8339815191526107688133610b14565b8887146107875760405162461bcd60e51b81526004016106489061147e565b8885146107a65760405162461bcd60e51b81526004016106489061147e565b60006107b88b8b8b8b8b8b8b8b6108b9565b90506107c48184610b78565b60005b8a8110156108825780827f4cf4410cc57040e44862ef0f45f3dd5a5e02db8eb8add648d4b0e236f1d07dca8e8e85818110610804576108046114c1565b905060200201602081019061081991906114d7565b8d8d8681811061082b5761082b6114c1565b905060200201358c8c87818110610844576108446114c1565b905060200281019061085691906114f2565b8c8b60405161086a96959493929190611441565b60405180910390a361087b8161154e565b90506107c7565b505050505050505050505050565b6000918252602082815260408084206001600160a01b0393909316845291905290205460ff1690565b600088888888888888886040516020016108da9897969594939291906115fd565b60405160208183030381529060405280519060200120905098975050505050505050565b60008051602061186b8339815191526109178133610b14565b6109208261065f565b6109865760405162461bcd60e51b815260206004820152603160248201527f54696d656c6f636b436f6e74726f6c6c65723a206f7065726174696f6e2063616044820152701b9b9bdd0818994818d85b98d95b1b1959607a1b6064820152608401610648565b6000828152600160205260408082208290555183917fbaa1eb22f2a492ba1a5fea61b8df4d27c6c8b5f3971e63bb58fa14ff72eedb7091a25050565b60009081526001602052604090205490565b6109dd8261057e565b6109e78133610b14565b6105c48383610ec9565b60008051602061188b833981519152610a0b816000610890565b610a1957610a198133610b14565b878614610a385760405162461bcd60e51b81526004016106489061147e565b878414610a575760405162461bcd60e51b81526004016106489061147e565b6000610a698a8a8a8a8a8a8a8a6108b9565b9050610a758185610c67565b60005b89811015610afe57610aee82828d8d85818110610a9757610a976114c1565b9050602002016020810190610aac91906114d7565b8c8c86818110610abe57610abe6114c1565b905060200201358b8b87818110610ad757610ad76114c1565b9050602002810190610ae991906114f2565b610cf8565b610af78161154e565b9050610a78565b50610b0881610e0c565b50505050505050505050565b610b1e8282610890565b61065b57610b36816001600160a01b03166014610f2e565b610b41836020610f2e565b604051602001610b529291906116d8565b60408051601f198184030181529082905262461bcd60e51b825261064891600401611747565b610b81826105c9565b15610be65760405162461bcd60e51b815260206004820152602f60248201527f54696d656c6f636b436f6e74726f6c6c65723a206f7065726174696f6e20616c60448201526e1c9958591e481cd8da19591d5b1959608a1b6064820152608401610648565b600254811015610c475760405162461bcd60e51b815260206004820152602660248201527f54696d656c6f636b436f6e74726f6c6c65723a20696e73756666696369656e746044820152652064656c617960d01b6064820152608401610648565b610c51814261177a565b6000928352600160205260409092209190915550565b610c7082610559565b610c8c5760405162461bcd60e51b815260040161064890611792565b801580610c9d5750610c9d81610593565b61065b5760405162461bcd60e51b815260206004820152602660248201527f54696d656c6f636b436f6e74726f6c6c65723a206d697373696e6720646570656044820152656e64656e637960d01b6064820152608401610648565b6000846001600160a01b0316848484604051610d159291906117dc565b60006040518083038185875af1925050503d8060008114610d52576040519150601f19603f3d011682016040523d82523d6000602084013e610d57565b606091505b5050905080610dc45760405162461bcd60e51b815260206004820152603360248201527f54696d656c6f636b436f6e74726f6c6c65723a20756e6465726c79696e6720746044820152721c985b9cd858dd1a5bdb881c995d995c9d1959606a1b6064820152608401610648565b85877fc2617efa69bab66782fa219543714338489c4e9e178271560a91b82c3f612b5887878787604051610dfb94939291906117ec565b60405180910390a350505050505050565b610e1581610559565b610e315760405162461bcd60e51b815260040161064890611792565b600090815260016020819052604090912055565b610e4f8282610890565b61065b576000828152602081815260408083206001600160a01b03851684529091529020805460ff19166001179055610e853390565b6001600160a01b0316816001600160a01b0316837f2f8788117e7eff1d82e926ec794901d17c78024a50270940304540a733656f0d60405160405180910390a45050565b610ed38282610890565b1561065b576000828152602081815260408083206001600160a01b0385168085529252808320805460ff1916905551339285917ff6391f5c32d9c69d2a47ea670b442974b53935d1edc7fd64eb21e047a839171b9190a45050565b60606000610f3d83600261181e565b610f4890600261177a565b6001600160401b03811115610f5f57610f5f61183d565b6040519080825280601f01601f191660200182016040528015610f89576020820181803683370190505b509050600360fc1b81600081518110610fa457610fa46114c1565b60200101906001600160f81b031916908160001a905350600f60fb1b81600181518110610fd357610fd36114c1565b60200101906001600160f81b031916908160001a9053506000610ff784600261181e565b61100290600161177a565b90505b600181111561107a576f181899199a1a9b1b9c1cb0b131b232b360811b85600f1660108110611036576110366114c1565b1a60f81b82828151811061104c5761104c6114c1565b60200101906001600160f81b031916908160001a90535060049490941c9361107381611853565b9050611005565b5083156105775760405162461bcd60e51b815260206004820181905260248201527f537472696e67733a20686578206c656e67746820696e73756666696369656e746044820152606401610648565b80356001600160a01b03811681146110e057600080fd5b919050565b60008083601f8401126110f757600080fd5b5081356001600160401b0381111561110e57600080fd5b60208301915083602082850101111561112657600080fd5b9250929050565b600080600080600080600060c0888a03121561114857600080fd5b611151886110c9565b96506020880135955060408801356001600160401b0381111561117357600080fd5b61117f8a828b016110e5565b989b979a50986060810135976080820135975060a09091013595509350505050565b6000602082840312156111b357600080fd5b81356001600160e01b03198116811461057757600080fd5b60008060008060008060a087890312156111e457600080fd5b6111ed876110c9565b95506020870135945060408701356001600160401b0381111561120f57600080fd5b61121b89828a016110e5565b979a9699509760608101359660809091013595509350505050565b60006020828403121561124857600080fd5b5035919050565b6000806040838503121561126257600080fd5b82359150611272602084016110c9565b90509250929050565b60008083601f84011261128d57600080fd5b5081356001600160401b038111156112a457600080fd5b6020830191508360208260051b850101111561112657600080fd5b600080600080600080600080600060c08a8c0312156112dd57600080fd5b89356001600160401b03808211156112f457600080fd5b6113008d838e0161127b565b909b50995060208c013591508082111561131957600080fd5b6113258d838e0161127b565b909950975060408c013591508082111561133e57600080fd5b5061134b8c828d0161127b565b9a9d999c50979a969997986060880135976080810135975060a0013595509350505050565b60008060008060008060008060a0898b03121561138c57600080fd5b88356001600160401b03808211156113a357600080fd5b6113af8c838d0161127b565b909a50985060208b01359150808211156113c857600080fd5b6113d48c838d0161127b565b909850965060408b01359150808211156113ed57600080fd5b506113fa8b828c0161127b565b999c989b509699959896976060870135966080013595509350505050565b81835281816020850137506000828201602090810191909152601f909101601f19169091010190565b60018060a01b038716815285602082015260a06040820152600061146960a083018688611418565b60608301949094525060800152949350505050565b60208082526023908201527f54696d656c6f636b436f6e74726f6c6c65723a206c656e677468206d69736d616040820152620e8c6d60eb1b606082015260800190565b634e487b7160e01b600052603260045260246000fd5b6000602082840312156114e957600080fd5b610577826110c9565b6000808335601e1984360301811261150957600080fd5b8301803591506001600160401b0382111561152357600080fd5b60200191503681900382131561112657600080fd5b634e487b7160e01b600052601160045260246000fd5b600060001982141561156257611562611538565b5060010190565b60008383855260208086019550808560051b8301018460005b878110156115f057848303601f19018952813536889003601e190181126115a857600080fd5b870180356001600160401b038111156115c057600080fd5b8036038913156115cf57600080fd5b6115dc8582888501611418565b9a86019a9450505090830190600101611582565b5090979650505050505050565b60a0808252810188905260008960c08301825b8b81101561163e576001600160a01b03611629846110c9565b16825260209283019290910190600101611610565b5083810360208501528881526001600160fb1b0389111561165e57600080fd5b8860051b9150818a60208301378181019150506020810160008152602084830301604085015261168f81888a611569565b6060850196909652505050608001529695505050505050565b60005b838110156116c35781810151838201526020016116ab565b838111156116d2576000848401525b50505050565b76020b1b1b2b9b9a1b7b73a3937b61d1030b1b1b7bab73a1604d1b81526000835161170a8160178501602088016116a8565b7001034b99036b4b9b9b4b733903937b6329607d1b601791840191820152835161173b8160288401602088016116a8565b01602801949350505050565b60208152600082518060208401526117668160408501602087016116a8565b601f01601f19169190910160400192915050565b6000821982111561178d5761178d611538565b500190565b6020808252602a908201527f54696d656c6f636b436f6e74726f6c6c65723a206f7065726174696f6e206973604082015269206e6f7420726561647960b01b606082015260800190565b8183823760009101908152919050565b60018060a01b0385168152836020820152606060408201526000611814606083018486611418565b9695505050505050565b600081600019048311821515161561183857611838611538565b500290565b634e487b7160e01b600052604160045260246000fd5b60008161186257611862611538565b50600019019056feb09aa5aeb3702cfd50b6b62bc4532604938f21248a27a1d5ca736082b6819cc1d8aa0f3194971a2a116679f7c2090f6939c8d4e01a2a8d7e41d55e5351469e63a2646970667358221220b85e9363ea370022789d234103e87f69a4d1f248807025b324e0ae4475d6461564736f6c634300080900335f58e3a2316349923ce3780f8d587db2d72378aed66a8261c916544fa6846ca5b09aa5aeb3702cfd50b6b62bc4532604938f21248a27a1d5ca736082b6819cc1d8aa0f3194971a2a116679f7c2090f6939c8d4e01a2a8d7e41d55e5351469e63",
  "immutableReferences": {},
  "source": "// SPDX-License-Identifier: MIT\n\npragma solidity ^0.8.0;\n\nimport \"@openzeppelin/contracts/governance/TimelockController.sol\";\n\ncontract MyTimelockController is TimelockController{\n    constructor(uint timelock, address[] memory proposers, address[] memory executors) TimelockController(timelock, proposers, executors){}\n}",
  "sourcePath": "/home/luca/workspace/smartcontracts/myToken/contracts/MyTimelockController.sol",
  "compiler": {
    "name": "solc",
    "version": "0.8.9+commit.e5eed63a.Emscripten.clang"
  },
  "schemaVersion": "3.4.3",
  "updatedAt": "2021-11-07T14:25:27.635Z",
  "networkType": "ethereum",
  "devdoc": {
    "kind": "dev",
    "methods": {
      "cancel(bytes32)": {
        "details": "Cancel an operation. Requirements: - the caller must have the 'proposer' role."
      },
      "execute(address,uint256,bytes,bytes32,bytes32)": {
        "details": "Execute an (ready) operation containing a single transaction. Emits a {CallExecuted} event. Requirements: - the caller must have the 'executor' role."
      },
      "executeBatch(address[],uint256[],bytes[],bytes32,bytes32)": {
        "details": "Execute an (ready) operation containing a batch of transactions. Emits one {CallExecuted} event per transaction in the batch. Requirements: - the caller must have the 'executor' role."
      },
      "getMinDelay()": {
        "details": "Returns the minimum delay for an operation to become valid. This value can be changed by executing an operation that calls `updateDelay`."
      },
      "getRoleAdmin(bytes32)": {
        "details": "Returns the admin role that controls `role`. See {grantRole} and {revokeRole}. To change a role's admin, use {_setRoleAdmin}."
      },
      "getTimestamp(bytes32)": {
        "details": "Returns the timestamp at with an operation becomes ready (0 for unset operations, 1 for done operations)."
      },
      "grantRole(bytes32,address)": {
        "details": "Grants `role` to `account`. If `account` had not been already granted `role`, emits a {RoleGranted} event. Requirements: - the caller must have ``role``'s admin role."
      },
      "hasRole(bytes32,address)": {
        "details": "Returns `true` if `account` has been granted `role`."
      },
      "hashOperation(address,uint256,bytes,bytes32,bytes32)": {
        "details": "Returns the identifier of an operation containing a single transaction."
      },
      "hashOperationBatch(address[],uint256[],bytes[],bytes32,bytes32)": {
        "details": "Returns the identifier of an operation containing a batch of transactions."
      },
      "isOperation(bytes32)": {
        "details": "Returns whether an id correspond to a registered operation. This includes both Pending, Ready and Done operations."
      },
      "isOperationDone(bytes32)": {
        "details": "Returns whether an operation is done or not."
      },
      "isOperationPending(bytes32)": {
        "details": "Returns whether an operation is pending or not."
      },
      "isOperationReady(bytes32)": {
        "details": "Returns whether an operation is ready or not."
      },
      "renounceRole(bytes32,address)": {
        "details": "Revokes `role` from the calling account. Roles are often managed via {grantRole} and {revokeRole}: this function's purpose is to provide a mechanism for accounts to lose their privileges if they are compromised (such as when a trusted device is misplaced). If the calling account had been granted `role`, emits a {RoleRevoked} event. Requirements: - the caller must be `account`."
      },
      "revokeRole(bytes32,address)": {
        "details": "Revokes `role` from `account`. If `account` had been granted `role`, emits a {RoleRevoked} event. Requirements: - the caller must have ``role``'s admin role."
      },
      "schedule(address,uint256,bytes,bytes32,bytes32,uint256)": {
        "details": "Schedule an operation containing a single transaction. Emits a {CallScheduled} event. Requirements: - the caller must have the 'proposer' role."
      },
      "scheduleBatch(address[],uint256[],bytes[],bytes32,bytes32,uint256)": {
        "details": "Schedule an operation containing a batch of transactions. Emits one {CallScheduled} event per transaction in the batch. Requirements: - the caller must have the 'proposer' role."
      },
      "supportsInterface(bytes4)": {
        "details": "See {IERC165-supportsInterface}."
      },
      "updateDelay(uint256)": {
        "details": "Changes the minimum timelock duration for future operations. Emits a {MinDelayChange} event. Requirements: - the caller must be the timelock itself. This can only be achieved by scheduling and later executing an operation where the timelock is the target and the data is the ABI-encoded call to this function."
      }
    },
    "version": 1
  },
  "userdoc": {
    "kind": "user",
    "methods": {},
    "version": 1
  }
}