{
  "contractName": "MyTokenERC20",
  "abi": [
    {
      "inputs": [
        {
          "internalType": "uint256",
          "name": "initialSupply",
          "type": "uint256"
        }
      ],
      "stateMutability": "nonpayable",
      "type": "constructor"
    },
    {
      "anonymous": false,
      "inputs": [
        {
          "indexed": true,
          "internalType": "address",
          "name": "owner",
          "type": "address"
        },
        {
          "indexed": true,
          "internalType": "address",
          "name": "spender",
          "type": "address"
        },
        {
          "indexed": false,
          "internalType": "uint256",
          "name": "value",
          "type": "uint256"
        }
      ],
      "name": "Approval",
      "type": "event"
    },
    {
      "anonymous": false,
      "inputs": [
        {
          "indexed": false,
          "internalType": "address",
          "name": "account",
          "type": "address"
        }
      ],
      "name": "Paused",
      "type": "event"
    },
    {
      "anonymous": false,
      "inputs": [
        {
          "indexed": true,
          "internalType": "bytes32",
          "name": "role",
          "type": "bytes32"
        },
        {
          "indexed": true,
          "internalType": "bytes32",
          "name": "previousAdminRole",
          "type": "bytes32"
        },
        {
          "indexed": true,
          "internalType": "bytes32",
          "name": "newAdminRole",
          "type": "bytes32"
        }
      ],
      "name": "RoleAdminChanged",
      "type": "event"
    },
    {
      "anonymous": false,
      "inputs": [
        {
          "indexed": true,
          "internalType": "bytes32",
          "name": "role",
          "type": "bytes32"
        },
        {
          "indexed": true,
          "internalType": "address",
          "name": "account",
          "type": "address"
        },
        {
          "indexed": true,
          "internalType": "address",
          "name": "sender",
          "type": "address"
        }
      ],
      "name": "RoleGranted",
      "type": "event"
    },
    {
      "anonymous": false,
      "inputs": [
        {
          "indexed": true,
          "internalType": "bytes32",
          "name": "role",
          "type": "bytes32"
        },
        {
          "indexed": true,
          "internalType": "address",
          "name": "account",
          "type": "address"
        },
        {
          "indexed": true,
          "internalType": "address",
          "name": "sender",
          "type": "address"
        }
      ],
      "name": "RoleRevoked",
      "type": "event"
    },
    {
      "anonymous": false,
      "inputs": [
        {
          "indexed": true,
          "internalType": "address",
          "name": "from",
          "type": "address"
        },
        {
          "indexed": true,
          "internalType": "address",
          "name": "to",
          "type": "address"
        },
        {
          "indexed": false,
          "internalType": "uint256",
          "name": "value",
          "type": "uint256"
        }
      ],
      "name": "Transfer",
      "type": "event"
    },
    {
      "anonymous": false,
      "inputs": [
        {
          "indexed": false,
          "internalType": "address",
          "name": "account",
          "type": "address"
        }
      ],
      "name": "Unpaused",
      "type": "event"
    },
    {
      "stateMutability": "payable",
      "type": "fallback",
      "payable": true
    },
    {
      "inputs": [],
      "name": "BURNER_ROLE",
      "outputs": [
        {
          "internalType": "bytes32",
          "name": "",
          "type": "bytes32"
        }
      ],
      "stateMutability": "view",
      "type": "function",
      "constant": true
    },
    {
      "inputs": [],
      "name": "DEFAULT_ADMIN_ROLE",
      "outputs": [
        {
          "internalType": "bytes32",
          "name": "",
          "type": "bytes32"
        }
      ],
      "stateMutability": "view",
      "type": "function",
      "constant": true
    },
    {
      "inputs": [],
      "name": "MINTER_ROLE",
      "outputs": [
        {
          "internalType": "bytes32",
          "name": "",
          "type": "bytes32"
        }
      ],
      "stateMutability": "view",
      "type": "function",
      "constant": true
    },
    {
      "inputs": [],
      "name": "PAUSER_ROLE",
      "outputs": [
        {
          "internalType": "bytes32",
          "name": "",
          "type": "bytes32"
        }
      ],
      "stateMutability": "view",
      "type": "function",
      "constant": true
    },
    {
      "inputs": [
        {
          "internalType": "address",
          "name": "owner",
          "type": "address"
        },
        {
          "internalType": "address",
          "name": "spender",
          "type": "address"
        }
      ],
      "name": "allowance",
      "outputs": [
        {
          "internalType": "uint256",
          "name": "",
          "type": "uint256"
        }
      ],
      "stateMutability": "view",
      "type": "function",
      "constant": true
    },
    {
      "inputs": [
        {
          "internalType": "address",
          "name": "spender",
          "type": "address"
        },
        {
          "internalType": "uint256",
          "name": "amount",
          "type": "uint256"
        }
      ],
      "name": "approve",
      "outputs": [
        {
          "internalType": "bool",
          "name": "",
          "type": "bool"
        }
      ],
      "stateMutability": "nonpayable",
      "type": "function"
    },
    {
      "inputs": [
        {
          "internalType": "address",
          "name": "account",
          "type": "address"
        }
      ],
      "name": "balanceOf",
      "outputs": [
        {
          "internalType": "uint256",
          "name": "",
          "type": "uint256"
        }
      ],
      "stateMutability": "view",
      "type": "function",
      "constant": true
    },
    {
      "inputs": [
        {
          "internalType": "address",
          "name": "account",
          "type": "address"
        },
        {
          "internalType": "uint256",
          "name": "amount",
          "type": "uint256"
        }
      ],
      "name": "burnFrom",
      "outputs": [],
      "stateMutability": "nonpayable",
      "type": "function"
    },
    {
      "inputs": [],
      "name": "decimals",
      "outputs": [
        {
          "internalType": "uint8",
          "name": "",
          "type": "uint8"
        }
      ],
      "stateMutability": "view",
      "type": "function",
      "constant": true
    },
    {
      "inputs": [
        {
          "internalType": "address",
          "name": "spender",
          "type": "address"
        },
        {
          "internalType": "uint256",
          "name": "subtractedValue",
          "type": "uint256"
        }
      ],
      "name": "decreaseAllowance",
      "outputs": [
        {
          "internalType": "bool",
          "name": "",
          "type": "bool"
        }
      ],
      "stateMutability": "nonpayable",
      "type": "function"
    },
    {
      "inputs": [
        {
          "internalType": "bytes32",
          "name": "role",
          "type": "bytes32"
        }
      ],
      "name": "getRoleAdmin",
      "outputs": [
        {
          "internalType": "bytes32",
          "name": "",
          "type": "bytes32"
        }
      ],
      "stateMutability": "view",
      "type": "function",
      "constant": true
    },
    {
      "inputs": [
        {
          "internalType": "bytes32",
          "name": "role",
          "type": "bytes32"
        },
        {
          "internalType": "uint256",
          "name": "index",
          "type": "uint256"
        }
      ],
      "name": "getRoleMember",
      "outputs": [
        {
          "internalType": "address",
          "name": "",
          "type": "address"
        }
      ],
      "stateMutability": "view",
      "type": "function",
      "constant": true
    },
    {
      "inputs": [
        {
          "internalType": "bytes32",
          "name": "role",
          "type": "bytes32"
        }
      ],
      "name": "getRoleMemberCount",
      "outputs": [
        {
          "internalType": "uint256",
          "name": "",
          "type": "uint256"
        }
      ],
      "stateMutability": "view",
      "type": "function",
      "constant": true
    },
    {
      "inputs": [
        {
          "internalType": "bytes32",
          "name": "role",
          "type": "bytes32"
        },
        {
          "internalType": "address",
          "name": "account",
          "type": "address"
        }
      ],
      "name": "grantRole",
      "outputs": [],
      "stateMutability": "nonpayable",
      "type": "function"
    },
    {
      "inputs": [
        {
          "internalType": "bytes32",
          "name": "role",
          "type": "bytes32"
        },
        {
          "internalType": "address",
          "name": "account",
          "type": "address"
        }
      ],
      "name": "hasRole",
      "outputs": [
        {
          "internalType": "bool",
          "name": "",
          "type": "bool"
        }
      ],
      "stateMutability": "view",
      "type": "function",
      "constant": true
    },
    {
      "inputs": [
        {
          "internalType": "address",
          "name": "spender",
          "type": "address"
        },
        {
          "internalType": "uint256",
          "name": "addedValue",
          "type": "uint256"
        }
      ],
      "name": "increaseAllowance",
      "outputs": [
        {
          "internalType": "bool",
          "name": "",
          "type": "bool"
        }
      ],
      "stateMutability": "nonpayable",
      "type": "function"
    },
    {
      "inputs": [
        {
          "internalType": "address",
          "name": "to",
          "type": "address"
        },
        {
          "internalType": "uint256",
          "name": "amount",
          "type": "uint256"
        }
      ],
      "name": "mint",
      "outputs": [],
      "stateMutability": "nonpayable",
      "type": "function"
    },
    {
      "inputs": [],
      "name": "name",
      "outputs": [
        {
          "internalType": "string",
          "name": "",
          "type": "string"
        }
      ],
      "stateMutability": "view",
      "type": "function",
      "constant": true
    },
    {
      "inputs": [],
      "name": "pause",
      "outputs": [],
      "stateMutability": "nonpayable",
      "type": "function"
    },
    {
      "inputs": [],
      "name": "paused",
      "outputs": [
        {
          "internalType": "bool",
          "name": "",
          "type": "bool"
        }
      ],
      "stateMutability": "view",
      "type": "function",
      "constant": true
    },
    {
      "inputs": [
        {
          "internalType": "bytes32",
          "name": "role",
          "type": "bytes32"
        },
        {
          "internalType": "address",
          "name": "account",
          "type": "address"
        }
      ],
      "name": "renounceRole",
      "outputs": [],
      "stateMutability": "nonpayable",
      "type": "function"
    },
    {
      "inputs": [
        {
          "internalType": "bytes32",
          "name": "role",
          "type": "bytes32"
        },
        {
          "internalType": "address",
          "name": "account",
          "type": "address"
        }
      ],
      "name": "revokeRole",
      "outputs": [],
      "stateMutability": "nonpayable",
      "type": "function"
    },
    {
      "inputs": [
        {
          "internalType": "bytes4",
          "name": "interfaceId",
          "type": "bytes4"
        }
      ],
      "name": "supportsInterface",
      "outputs": [
        {
          "internalType": "bool",
          "name": "",
          "type": "bool"
        }
      ],
      "stateMutability": "view",
      "type": "function",
      "constant": true
    },
    {
      "inputs": [],
      "name": "symbol",
      "outputs": [
        {
          "internalType": "string",
          "name": "",
          "type": "string"
        }
      ],
      "stateMutability": "view",
      "type": "function",
      "constant": true
    },
    {
      "inputs": [],
      "name": "totalSupply",
      "outputs": [
        {
          "internalType": "uint256",
          "name": "",
          "type": "uint256"
        }
      ],
      "stateMutability": "view",
      "type": "function",
      "constant": true
    },
    {
      "inputs": [
        {
          "internalType": "address",
          "name": "recipient",
          "type": "address"
        },
        {
          "internalType": "uint256",
          "name": "amount",
          "type": "uint256"
        }
      ],
      "name": "transfer",
      "outputs": [
        {
          "internalType": "bool",
          "name": "",
          "type": "bool"
        }
      ],
      "stateMutability": "nonpayable",
      "type": "function"
    },
    {
      "inputs": [
        {
          "internalType": "address",
          "name": "sender",
          "type": "address"
        },
        {
          "internalType": "address",
          "name": "recipient",
          "type": "address"
        },
        {
          "internalType": "uint256",
          "name": "amount",
          "type": "uint256"
        }
      ],
      "name": "transferFrom",
      "outputs": [
        {
          "internalType": "bool",
          "name": "",
          "type": "bool"
        }
      ],
      "stateMutability": "nonpayable",
      "type": "function"
    },
    {
      "inputs": [],
      "name": "unpause",
      "outputs": [],
      "stateMutability": "nonpayable",
      "type": "function"
    },
    {
      "inputs": [
        {
          "internalType": "uint256",
          "name": "value",
          "type": "uint256"
        }
      ],
      "name": "burn",
      "outputs": [],
      "stateMutability": "nonpayable",
      "type": "function"
    }
  ],
  "bytecode": "0x60806040523480156200001157600080fd5b50604051620023ee380380620023ee833981016040819052620000349162000773565b604080518082018252600781526626bcaa37b5b2b760c91b6020808301918252835180850190945260038452624d544b60e81b908401528151919291839183916200008291600591620006cd565b50805162000098906006906020840190620006cd565b50506007805460ff1916905550620000b26000336200014c565b620000de7f9f2df0fed2c77648de5860a4cc508cd0818c85b8b8a1ab4ceeef8d981c8956a6336200014c565b6200010a7f65d7a28e3265b37a6474929f336521b332c1681b933f6cb9f3376673440d862a336200014c565b5062000119905033826200018f565b620001457f3c11d16cbaffd01df69ce1c404f6340ee057498f5f00246190ea54220576a8483362000287565b5062000944565b6200016382826200029e60201b62000ac31760201c565b60008281526001602090815260409091206200018a91839062000acd620002aa821b17901c565b505050565b6001600160a01b038216620001eb5760405162461bcd60e51b815260206004820152601f60248201527f45524332303a206d696e7420746f20746865207a65726f20616464726573730060448201526064015b60405180910390fd5b620001f960008383620002ca565b80600460008282546200020d9190620007a3565b90915550506001600160a01b038216600090815260026020526040812080548392906200023c908490620007a3565b90915550506040518181526001600160a01b038316906000907fddf252ad1be2c89b69c2b068fc378daa952ba7f163c4a11628f55a4df523b3ef9060200160405180910390a35b5050565b620001638282620002e260201b62000ae21760201c565b62000283828262000307565b6000620002c1836001600160a01b038416620003a7565b90505b92915050565b6200018a838383620003f960201b62000aff1760201c565b60008281526020819052604090206001015462000300813362000479565b6200018a83835b6000828152602081815260408083206001600160a01b038516845290915290205460ff1662000283576000828152602081815260408083206001600160a01b03851684529091529020805460ff19166001179055620003633390565b6001600160a01b0316816001600160a01b0316837f2f8788117e7eff1d82e926ec794901d17c78024a50270940304540a733656f0d60405160405180910390a45050565b6000818152600183016020526040812054620003f057508154600181810184556000848152602080822090930184905584548482528286019093526040902091909155620002c4565b506000620002c4565b620004118383836200018a60201b620007031760201c565b60075460ff16156200018a5760405162461bcd60e51b815260206004820152602a60248201527f45524332305061757361626c653a20746f6b656e207472616e736665722077686044820152691a5b19481c185d5cd95960b21b6064820152608401620001e2565b6000828152602081815260408083206001600160a01b038516845290915290205460ff166200028357620004c3816001600160a01b031660146200051460201b62000b651760201c565b620004d983602062000b6562000514821b17811c565b604051602001620004ec929190620007f1565b60408051601f198184030181529082905262461bcd60e51b8252620001e2916004016200086a565b60606000620005258360026200089f565b62000532906002620007a3565b6001600160401b038111156200054c576200054c620008c1565b6040519080825280601f01601f19166020018201604052801562000577576020820181803683370190505b509050600360fc1b81600081518110620005955762000595620008d7565b60200101906001600160f81b031916908160001a905350600f60fb1b81600181518110620005c757620005c7620008d7565b60200101906001600160f81b031916908160001a9053506000620005ed8460026200089f565b620005fa906001620007a3565b90505b60018111156200067c576f181899199a1a9b1b9c1cb0b131b232b360811b85600f1660108110620006325762000632620008d7565b1a60f81b8282815181106200064b576200064b620008d7565b60200101906001600160f81b031916908160001a90535060049490941c936200067481620008ed565b9050620005fd565b508315620002c15760405162461bcd60e51b815260206004820181905260248201527f537472696e67733a20686578206c656e67746820696e73756666696369656e746044820152606401620001e2565b828054620006db9062000907565b90600052602060002090601f016020900481019282620006ff57600085556200074a565b82601f106200071a57805160ff19168380011785556200074a565b828001600101855582156200074a579182015b828111156200074a5782518255916020019190600101906200072d565b50620007589291506200075c565b5090565b5b808211156200075857600081556001016200075d565b6000602082840312156200078657600080fd5b5051919050565b634e487b7160e01b600052601160045260246000fd5b60008219821115620007b957620007b96200078d565b500190565b60005b83811015620007db578181015183820152602001620007c1565b83811115620007eb576000848401525b50505050565b7f416363657373436f6e74726f6c3a206163636f756e74200000000000000000008152600083516200082b816017850160208801620007be565b7001034b99036b4b9b9b4b733903937b6329607d1b60179184019182015283516200085e816028840160208801620007be565b01602801949350505050565b60208152600082518060208401526200088b816040850160208701620007be565b601f01601f19169190910160400192915050565b6000816000190483118215151615620008bc57620008bc6200078d565b500290565b634e487b7160e01b600052604160045260246000fd5b634e487b7160e01b600052603260045260246000fd5b600081620008ff57620008ff6200078d565b506000190190565b600181811c908216806200091c57607f821691505b602082108114156200093e57634e487b7160e01b600052602260045260246000fd5b50919050565b611a9a80620009546000396000f3fe6080604052600436106101525760003560e01c806301ffc9a71461015757806306fdde031461018c578063095ea7b3146101ae57806318160ddd146101ce57806323b872dd146101ed578063248a9ca31461020d578063282c51f31461022d5780632f2ff15d14610261578063313ce5671461028357806336568abe1461029f57806339509351146102bf5780633f4ba83a146102df57806340c10f19146102f457806342966c68146103145780635c975abb1461033457806370a082311461034c57806379cc6790146103825780638456cb59146103a25780639010d07c146103b757806391d14854146103e457806395d89b4114610404578063a217fddf14610419578063a457c2d71461042e578063a9059cbb1461044e578063ca15c8731461046e578063d53913931461048e578063d547741f146104c2578063dd62ed3e146104e2578063e63ab1e914610528575b600080fd5b34801561016357600080fd5b506101776101723660046116d2565b61054a565b60405190151581526020015b60405180910390f35b34801561019857600080fd5b506101a1610575565b6040516101839190611728565b3480156101ba57600080fd5b506101776101c9366004611777565b610607565b3480156101da57600080fd5b506004545b604051908152602001610183565b3480156101f957600080fd5b506101776102083660046117a1565b61061d565b34801561021957600080fd5b506101df6102283660046117dd565b6106cc565b34801561023957600080fd5b506101df7f3c11d16cbaffd01df69ce1c404f6340ee057498f5f00246190ea54220576a84881565b34801561026d57600080fd5b5061028161027c3660046117f6565b6106e1565b005b34801561028f57600080fd5b5060405160128152602001610183565b3480156102ab57600080fd5b506102816102ba3660046117f6565b610708565b3480156102cb57600080fd5b506101776102da366004611777565b61072a565b3480156102eb57600080fd5b50610281610766565b34801561030057600080fd5b5061028161030f366004611777565b6107e4565b34801561032057600080fd5b5061028161032f3660046117dd565b610875565b34801561034057600080fd5b5060075460ff16610177565b34801561035857600080fd5b506101df610367366004611822565b6001600160a01b031660009081526002602052604090205490565b34801561038e57600080fd5b5061028161039d366004611777565b6108aa565b3480156103ae57600080fd5b5061028161092b565b3480156103c357600080fd5b506103d76103d236600461183d565b6109a5565b604051610183919061185f565b3480156103f057600080fd5b506101776103ff3660046117f6565b6109c4565b34801561041057600080fd5b506101a16109ed565b34801561042557600080fd5b506101df600081565b34801561043a57600080fd5b50610177610449366004611777565b6109fc565b34801561045a57600080fd5b50610177610469366004611777565b610a95565b34801561047a57600080fd5b506101df6104893660046117dd565b610aa2565b34801561049a57600080fd5b506101df7f9f2df0fed2c77648de5860a4cc508cd0818c85b8b8a1ab4ceeef8d981c8956a681565b3480156104ce57600080fd5b506102816104dd3660046117f6565b610ab9565b3480156104ee57600080fd5b506101df6104fd366004611873565b6001600160a01b03918216600090815260036020908152604080832093909416825291909152205490565b34801561053457600080fd5b506101df600080516020611a2583398151915281565b60006001600160e01b03198216635a05180f60e01b148061056f575061056f82610d01565b92915050565b6060600580546105849061189d565b80601f01602080910402602001604051908101604052809291908181526020018280546105b09061189d565b80156105fd5780601f106105d2576101008083540402835291602001916105fd565b820191906000526020600020905b8154815290600101906020018083116105e057829003601f168201915b5050505050905090565b6000610614338484610d36565b50600192915050565b600061062a848484610e5a565b6001600160a01b0384166000908152600360209081526040808320338452909152902054828110156106b45760405162461bcd60e51b815260206004820152602860248201527f45524332303a207472616e7366657220616d6f756e74206578636565647320616044820152676c6c6f77616e636560c01b60648201526084015b60405180910390fd5b6106c18533858403610d36565b506001949350505050565b60009081526020819052604090206001015490565b6106eb8282610ae2565b60008281526001602052604090206107039082610acd565b505050565b6107128282611023565b6000828152600160205260409020610703908261109d565b3360008181526003602090815260408083206001600160a01b038716845290915281205490916106149185906107619086906118ee565b610d36565b61077e600080516020611a25833981519152336109c4565b6107da5760405162461bcd60e51b81526020600482015260396024820152600080516020611a0583398151915260448201527876652070617573657220726f6c6520746f20756e706175736560381b60648201526084016106ab565b6107e26110b2565b565b61080e7f9f2df0fed2c77648de5860a4cc508cd0818c85b8b8a1ab4ceeef8d981c8956a6336109c4565b6108675760405162461bcd60e51b81526020600482015260366024820152600080516020611a058339815191526044820152751d99481b5a5b9d195c881c9bdb19481d1bc81b5a5b9d60521b60648201526084016106ab565b610871828261113f565b5050565b7f3c11d16cbaffd01df69ce1c404f6340ee057498f5f00246190ea54220576a8486108a08133611218565b610871338361127c565b60006108b683336104fd565b9050818110156109145760405162461bcd60e51b8152602060048201526024808201527f45524332303a206275726e20616d6f756e74206578636565647320616c6c6f77604482015263616e636560e01b60648201526084016106ab565b6109218333848403610d36565b610703838361127c565b610943600080516020611a25833981519152336109c4565b61099d5760405162461bcd60e51b81526020600482015260376024820152600080516020611a0583398151915260448201527676652070617573657220726f6c6520746f20706175736560481b60648201526084016106ab565b6107e26113c4565b60008281526001602052604081206109bd908361143f565b9392505050565b6000918252602082815260408084206001600160a01b0393909316845291905290205460ff1690565b6060600680546105849061189d565b3360009081526003602090815260408083206001600160a01b038616845290915281205482811015610a7e5760405162461bcd60e51b815260206004820152602560248201527f45524332303a2064656372656173656420616c6c6f77616e63652062656c6f77604482015264207a65726f60d81b60648201526084016106ab565b610a8b3385858403610d36565b5060019392505050565b6000610614338484610e5a565b600081815260016020526040812061056f9061144b565b6107128282611455565b6108718282611472565b60006109bd836001600160a01b0384166114f6565b610aeb826106cc565b610af58133611218565b6107038383611472565b60075460ff16156107035760405162461bcd60e51b815260206004820152602a60248201527f45524332305061757361626c653a20746f6b656e207472616e736665722077686044820152691a5b19481c185d5cd95960b21b60648201526084016106ab565b60606000610b74836002611906565b610b7f9060026118ee565b67ffffffffffffffff811115610b9757610b97611925565b6040519080825280601f01601f191660200182016040528015610bc1576020820181803683370190505b509050600360fc1b81600081518110610bdc57610bdc61193b565b60200101906001600160f81b031916908160001a905350600f60fb1b81600181518110610c0b57610c0b61193b565b60200101906001600160f81b031916908160001a9053506000610c2f846002611906565b610c3a9060016118ee565b90505b6001811115610cb2576f181899199a1a9b1b9c1cb0b131b232b360811b85600f1660108110610c6e57610c6e61193b565b1a60f81b828281518110610c8457610c8461193b565b60200101906001600160f81b031916908160001a90535060049490941c93610cab81611951565b9050610c3d565b5083156109bd5760405162461bcd60e51b815260206004820181905260248201527f537472696e67733a20686578206c656e67746820696e73756666696369656e7460448201526064016106ab565b60006001600160e01b03198216637965db0b60e01b148061056f57506301ffc9a760e01b6001600160e01b031983161461056f565b6001600160a01b038316610d985760405162461bcd60e51b8152602060048201526024808201527f45524332303a20617070726f76652066726f6d20746865207a65726f206164646044820152637265737360e01b60648201526084016106ab565b6001600160a01b038216610df95760405162461bcd60e51b815260206004820152602260248201527f45524332303a20617070726f766520746f20746865207a65726f206164647265604482015261737360f01b60648201526084016106ab565b6001600160a01b0383811660008181526003602090815260408083209487168084529482529182902085905590518481527f8c5be1e5ebec7d5bd14f71427d1e84f3dd0314c0f7b2291e5b200ac8c7c3b925910160405180910390a3505050565b6001600160a01b038316610ebe5760405162461bcd60e51b815260206004820152602560248201527f45524332303a207472616e736665722066726f6d20746865207a65726f206164604482015264647265737360d81b60648201526084016106ab565b6001600160a01b038216610f205760405162461bcd60e51b815260206004820152602360248201527f45524332303a207472616e7366657220746f20746865207a65726f206164647260448201526265737360e81b60648201526084016106ab565b610f2b838383611545565b6001600160a01b03831660009081526002602052604090205481811015610fa35760405162461bcd60e51b815260206004820152602660248201527f45524332303a207472616e7366657220616d6f756e7420657863656564732062604482015265616c616e636560d01b60648201526084016106ab565b6001600160a01b03808516600090815260026020526040808220858503905591851681529081208054849290610fda9084906118ee565b92505081905550826001600160a01b0316846001600160a01b0316600080516020611a458339815191528460405161101491815260200190565b60405180910390a35b50505050565b6001600160a01b03811633146110935760405162461bcd60e51b815260206004820152602f60248201527f416363657373436f6e74726f6c3a2063616e206f6e6c792072656e6f756e636560448201526e103937b632b9903337b91039b2b63360891b60648201526084016106ab565b6108718282611550565b60006109bd836001600160a01b0384166115b5565b60075460ff166110fb5760405162461bcd60e51b815260206004820152601460248201527314185d5cd8589b194e881b9bdd081c185d5cd95960621b60448201526064016106ab565b6007805460ff191690557f5db9ee0a495bf2e6ff9c91a7834c1ba4fdd244a5e8aa4e537bd38aeae4b073aa335b604051611135919061185f565b60405180910390a1565b6001600160a01b0382166111955760405162461bcd60e51b815260206004820152601f60248201527f45524332303a206d696e7420746f20746865207a65726f20616464726573730060448201526064016106ab565b6111a160008383611545565b80600460008282546111b391906118ee565b90915550506001600160a01b038216600090815260026020526040812080548392906111e09084906118ee565b90915550506040518181526001600160a01b03831690600090600080516020611a458339815191529060200160405180910390a35050565b61122282826109c4565b6108715761123a816001600160a01b03166014610b65565b611245836020610b65565b604051602001611256929190611968565b60408051601f198184030181529082905262461bcd60e51b82526106ab91600401611728565b6001600160a01b0382166112dc5760405162461bcd60e51b815260206004820152602160248201527f45524332303a206275726e2066726f6d20746865207a65726f206164647265736044820152607360f81b60648201526084016106ab565b6112e882600083611545565b6001600160a01b0382166000908152600260205260409020548181101561135c5760405162461bcd60e51b815260206004820152602260248201527f45524332303a206275726e20616d6f756e7420657863656564732062616c616e604482015261636560f01b60648201526084016106ab565b6001600160a01b038316600090815260026020526040812083830390556004805484929061138b9084906119d7565b90915550506040518281526000906001600160a01b03851690600080516020611a458339815191529060200160405180910390a3505050565b60075460ff161561140a5760405162461bcd60e51b815260206004820152601060248201526f14185d5cd8589b194e881c185d5cd95960821b60448201526064016106ab565b6007805460ff191660011790557f62e78cea01bee320cd4e420270b5ea74000d11b0c9f74754ebdbfc544b05a2586111283390565b60006109bd83836116a8565b600061056f825490565b61145e826106cc565b6114688133611218565b6107038383611550565b61147c82826109c4565b610871576000828152602081815260408083206001600160a01b03851684529091529020805460ff191660011790556114b23390565b6001600160a01b0316816001600160a01b0316837f2f8788117e7eff1d82e926ec794901d17c78024a50270940304540a733656f0d60405160405180910390a45050565b600081815260018301602052604081205461153d5750815460018181018455600084815260208082209093018490558454848252828601909352604090209190915561056f565b50600061056f565b610703838383610aff565b61155a82826109c4565b15610871576000828152602081815260408083206001600160a01b0385168085529252808320805460ff1916905551339285917ff6391f5c32d9c69d2a47ea670b442974b53935d1edc7fd64eb21e047a839171b9190a45050565b6000818152600183016020526040812054801561169e5760006115d96001836119d7565b85549091506000906115ed906001906119d7565b905081811461165257600086600001828154811061160d5761160d61193b565b90600052602060002001549050808760000184815481106116305761163061193b565b6000918252602080832090910192909255918252600188019052604090208390555b8554869080611663576116636119ee565b60019003818190600052602060002001600090559055856001016000868152602001908152602001600020600090556001935050505061056f565b600091505061056f565b60008260000182815481106116bf576116bf61193b565b9060005260206000200154905092915050565b6000602082840312156116e457600080fd5b81356001600160e01b0319811681146109bd57600080fd5b60005b838110156117175781810151838201526020016116ff565b8381111561101d5750506000910152565b60208152600082518060208401526117478160408501602087016116fc565b601f01601f19169190910160400192915050565b80356001600160a01b038116811461177257600080fd5b919050565b6000806040838503121561178a57600080fd5b6117938361175b565b946020939093013593505050565b6000806000606084860312156117b657600080fd5b6117bf8461175b565b92506117cd6020850161175b565b9150604084013590509250925092565b6000602082840312156117ef57600080fd5b5035919050565b6000806040838503121561180957600080fd5b823591506118196020840161175b565b90509250929050565b60006020828403121561183457600080fd5b6109bd8261175b565b6000806040838503121561185057600080fd5b50508035926020909101359150565b6001600160a01b0391909116815260200190565b6000806040838503121561188657600080fd5b61188f8361175b565b91506118196020840161175b565b600181811c908216806118b157607f821691505b602082108114156118d257634e487b7160e01b600052602260045260246000fd5b50919050565b634e487b7160e01b600052601160045260246000fd5b60008219821115611901576119016118d8565b500190565b6000816000190483118215151615611920576119206118d8565b500290565b634e487b7160e01b600052604160045260246000fd5b634e487b7160e01b600052603260045260246000fd5b600081611960576119606118d8565b506000190190565b76020b1b1b2b9b9a1b7b73a3937b61d1030b1b1b7bab73a1604d1b81526000835161199a8160178501602088016116fc565b7001034b99036b4b9b9b4b733903937b6329607d1b60179184019182015283516119cb8160288401602088016116fc565b01602801949350505050565b6000828210156119e9576119e96118d8565b500390565b634e487b7160e01b600052603160045260246000fdfe45524332305072657365744d696e7465725061757365723a206d75737420686165d7a28e3265b37a6474929f336521b332c1681b933f6cb9f3376673440d862addf252ad1be2c89b69c2b068fc378daa952ba7f163c4a11628f55a4df523b3efa2646970667358221220fec457233024232fbcc7ce1b99f71c037b1ee15a6dfd5c848b05f4c56b72df8564736f6c63430008090033",
  "immutableReferences": {},
  "source": "// contracts/MyTokenERC20.sol\n// SPDX-License-Identifier: MIT\npragma solidity ^0.8.0;\n\nimport \"@openzeppelin/contracts/token/ERC20/presets/ERC20PresetMinterPauser.sol\";\n\ncontract MyTokenERC20 is ERC20PresetMinterPauser {\n\n    bytes32 public constant BURNER_ROLE = keccak256(\"BURNER_ROLE\"); // Other roles can be assigned dinamically by the account having DEFAULT_ADMIN_ROLE role, by calling AccessControl.grantRole().\n\n    constructor(uint256 initialSupply) ERC20PresetMinterPauser(\"MyToken\", \"MTK\") {\n        _mint(msg.sender, initialSupply);\n        grantRole(BURNER_ROLE, msg.sender);\n    }\n\n    function burn(uint256 value) public onlyRole(BURNER_ROLE) override {\n        super._burn(msg.sender, value);\n    }\n\n    // REJECT any incoming ether\n\tfallback() external payable { revert(); }\n}",
  "sourcePath": "/home/luca/workspace/smartcontracts/myToken/contracts/MyTokenERC20.sol",
  "compiler": {
    "name": "solc",
    "version": "0.8.9+commit.e5eed63a.Emscripten.clang"
  },
  "schemaVersion": "3.4.3",
  "updatedAt": "2021-11-28T10:04:01.818Z",
  "networkType": "ethereum",
  "devdoc": {
    "kind": "dev",
    "methods": {
      "allowance(address,address)": {
        "details": "See {IERC20-allowance}."
      },
      "approve(address,uint256)": {
        "details": "See {IERC20-approve}. Requirements: - `spender` cannot be the zero address."
      },
      "balanceOf(address)": {
        "details": "See {IERC20-balanceOf}."
      },
      "burnFrom(address,uint256)": {
        "details": "Destroys `amount` tokens from `account`, deducting from the caller's allowance. See {ERC20-_burn} and {ERC20-allowance}. Requirements: - the caller must have allowance for ``accounts``'s tokens of at least `amount`."
      },
      "decimals()": {
        "details": "Returns the number of decimals used to get its user representation. For example, if `decimals` equals `2`, a balance of `505` tokens should be displayed to a user as `5.05` (`505 / 10 ** 2`). Tokens usually opt for a value of 18, imitating the relationship between Ether and Wei. This is the value {ERC20} uses, unless this function is overridden; NOTE: This information is only used for _display_ purposes: it in no way affects any of the arithmetic of the contract, including {IERC20-balanceOf} and {IERC20-transfer}."
      },
      "decreaseAllowance(address,uint256)": {
        "details": "Atomically decreases the allowance granted to `spender` by the caller. This is an alternative to {approve} that can be used as a mitigation for problems described in {IERC20-approve}. Emits an {Approval} event indicating the updated allowance. Requirements: - `spender` cannot be the zero address. - `spender` must have allowance for the caller of at least `subtractedValue`."
      },
      "getRoleAdmin(bytes32)": {
        "details": "Returns the admin role that controls `role`. See {grantRole} and {revokeRole}. To change a role's admin, use {_setRoleAdmin}."
      },
      "getRoleMember(bytes32,uint256)": {
        "details": "Returns one of the accounts that have `role`. `index` must be a value between 0 and {getRoleMemberCount}, non-inclusive. Role bearers are not sorted in any particular way, and their ordering may change at any point. WARNING: When using {getRoleMember} and {getRoleMemberCount}, make sure you perform all queries on the same block. See the following https://forum.openzeppelin.com/t/iterating-over-elements-on-enumerableset-in-openzeppelin-contracts/2296[forum post] for more information."
      },
      "getRoleMemberCount(bytes32)": {
        "details": "Returns the number of accounts that have `role`. Can be used together with {getRoleMember} to enumerate all bearers of a role."
      },
      "grantRole(bytes32,address)": {
        "details": "Overload {grantRole} to track enumerable memberships"
      },
      "hasRole(bytes32,address)": {
        "details": "Returns `true` if `account` has been granted `role`."
      },
      "increaseAllowance(address,uint256)": {
        "details": "Atomically increases the allowance granted to `spender` by the caller. This is an alternative to {approve} that can be used as a mitigation for problems described in {IERC20-approve}. Emits an {Approval} event indicating the updated allowance. Requirements: - `spender` cannot be the zero address."
      },
      "mint(address,uint256)": {
        "details": "Creates `amount` new tokens for `to`. See {ERC20-_mint}. Requirements: - the caller must have the `MINTER_ROLE`."
      },
      "name()": {
        "details": "Returns the name of the token."
      },
      "pause()": {
        "details": "Pauses all token transfers. See {ERC20Pausable} and {Pausable-_pause}. Requirements: - the caller must have the `PAUSER_ROLE`."
      },
      "paused()": {
        "details": "Returns true if the contract is paused, and false otherwise."
      },
      "renounceRole(bytes32,address)": {
        "details": "Overload {renounceRole} to track enumerable memberships"
      },
      "revokeRole(bytes32,address)": {
        "details": "Overload {revokeRole} to track enumerable memberships"
      },
      "supportsInterface(bytes4)": {
        "details": "See {IERC165-supportsInterface}."
      },
      "symbol()": {
        "details": "Returns the symbol of the token, usually a shorter version of the name."
      },
      "totalSupply()": {
        "details": "See {IERC20-totalSupply}."
      },
      "transfer(address,uint256)": {
        "details": "See {IERC20-transfer}. Requirements: - `recipient` cannot be the zero address. - the caller must have a balance of at least `amount`."
      },
      "transferFrom(address,address,uint256)": {
        "details": "See {IERC20-transferFrom}. Emits an {Approval} event indicating the updated allowance. This is not required by the EIP. See the note at the beginning of {ERC20}. Requirements: - `sender` and `recipient` cannot be the zero address. - `sender` must have a balance of at least `amount`. - the caller must have allowance for ``sender``'s tokens of at least `amount`."
      },
      "unpause()": {
        "details": "Unpauses all token transfers. See {ERC20Pausable} and {Pausable-_unpause}. Requirements: - the caller must have the `PAUSER_ROLE`."
      }
    },
    "version": 1
  },
  "userdoc": {
    "kind": "user",
    "methods": {},
    "version": 1
  }
}