{
  "contractName": "Sender",
  "abi": [
    {
      "inputs": [
        {
          "internalType": "address",
          "name": "_token",
          "type": "address"
        },
        {
          "internalType": "address",
          "name": "_owner",
          "type": "address"
        }
      ],
      "stateMutability": "nonpayable",
      "type": "constructor"
    },
    {
      "stateMutability": "payable",
      "type": "fallback",
      "payable": true
    },
    {
      "inputs": [
        {
          "internalType": "address",
          "name": "to",
          "type": "address"
        },
        {
          "internalType": "uint256",
          "name": "amount",
          "type": "uint256"
        }
      ],
      "name": "transfer",
      "outputs": [],
      "stateMutability": "nonpayable",
      "type": "function"
    }
  ],
  "bytecode": "0x608060405234801561001057600080fd5b5060405161031a38038061031a83398101604081905261002f9161007c565b600080546001600160a01b039384166001600160a01b031991821617909155600180549290931691161790556100af565b80516001600160a01b038116811461007757600080fd5b919050565b6000806040838503121561008f57600080fd5b61009883610060565b91506100a660208401610060565b90509250929050565b61025c806100be6000396000f3fe60806040526004361061001e5760003560e01c8063a9059cbb14610023575b600080fd5b34801561002f57600080fd5b5061004361003e3660046101ac565b610045565b005b6000546001546040516370a0823160e01b81526001600160a01b039182166004820152839291909116906370a082319060240160206040518083038186803b15801561009057600080fd5b505afa1580156100a4573d6000803e3d6000fd5b505050506040513d601f19601f820116820180604052508101906100c891906101e4565b10156101175760405162461bcd60e51b815260206004820152601a6024820152792232b734b2b2171020b6b7bab73a1034b9903a37903434b3b41760311b604482015260640160405180910390fd5b6000546001546040516323b872dd60e01b81526001600160a01b0391821660048201528482166024820152604481018490529116906323b872dd90606401602060405180830381600087803b15801561016f57600080fd5b505af1158015610183573d6000803e3d6000fd5b505050506040513d601f19601f820116820180604052508101906101a791906101fd565b505050565b600080604083850312156101bf57600080fd5b82356001600160a01b03811681146101d657600080fd5b946020939093013593505050565b6000602082840312156101f657600080fd5b5051919050565b60006020828403121561020f57600080fd5b8151801515811461021f57600080fd5b939250505056fea26469706673582212208ee981413c842a799575691695e85feef72b35c6e1184d3ad2a4a63de17e302564736f6c63430008090033",
  "immutableReferences": {},
  "source": "pragma solidity ^0.8.0;\n\nimport \"@openzeppelin/contracts/token/ERC20/ERC20.sol\";\n\ncontract Sender {\n    ERC20 token;\n    address owner;\n\n    constructor(address _token, address _owner) {\n        token = ERC20(_token);\n        owner = _owner;\n    }\n\n    function transfer(address to, uint256 amount) public {\n        require(token.balanceOf(owner) >= amount, \"Denied. Amount is to high.\");\n        token.transferFrom(owner, to, amount);\n    }\n\n    // REJECT any incoming ether\n\tfallback() external payable { revert(); }\n}",
  "sourcePath": "/home/luca/workspace/smartcontracts/myToken/contracts/Sender.sol",
  "compiler": {
    "name": "solc",
    "version": "0.8.9+commit.e5eed63a.Emscripten.clang"
  },
  "schemaVersion": "3.4.3",
  "updatedAt": "2021-11-28T09:09:59.384Z",
  "networkType": "ethereum",
  "devdoc": {
    "kind": "dev",
    "methods": {},
    "version": 1
  },
  "userdoc": {
    "kind": "user",
    "methods": {},
    "version": 1
  }
}